{"project/contracts/RenOsOracle.sol":{"RenOsOracle":{"abi":[{"inputs":[{"internalType":"address","name":"_usdc","type":"address"}],"stateMutability":"nonpayable","type":"constructor"},{"anonymous":false,"inputs":[{"indexed":true,"internalType":"uint256","name":"marketId","type":"uint256"},{"indexed":true,"internalType":"address","name":"staker","type":"address"},{"indexed":false,"internalType":"uint256","name":"payout","type":"uint256"}],"name":"Claimed","type":"event"},{"anonymous":false,"inputs":[{"indexed":true,"internalType":"uint256","name":"marketId","type":"uint256"},{"indexed":false,"internalType":"string","name":"question","type":"string"},{"indexed":false,"internalType":"uint256","name":"targetValue","type":"uint256"},{"indexed":false,"internalType":"uint256","name":"deadline","type":"uint256"}],"name":"MarketCreated","type":"event"},{"anonymous":false,"inputs":[{"indexed":true,"internalType":"uint256","name":"marketId","type":"uint256"},{"indexed":false,"internalType":"enum RenOsOracle.Outcome","name":"outcome","type":"uint8"},{"indexed":false,"internalType":"uint256","name":"actualValue","type":"uint256"},{"indexed":false,"internalType":"string","name":"dataSource","type":"string"}],"name":"MarketResolved","type":"event"},{"anonymous":false,"inputs":[{"indexed":true,"internalType":"uint256","name":"marketId","type":"uint256"},{"indexed":true,"internalType":"address","name":"staker","type":"address"},{"indexed":false,"internalType":"uint256","name":"amount","type":"uint256"},{"indexed":false,"internalType":"bool","name":"isYes","type":"bool"}],"name":"Staked","type":"event"},{"inputs":[{"internalType":"uint256","name":"marketId","type":"uint256"}],"name":"claim","outputs":[],"stateMutability":"nonpayable","type":"function"},{"inputs":[{"internalType":"string","name":"question","type":"string"},{"internalType":"uint256","name":"targetValue","type":"uint256"},{"internalType":"uint256","name":"deadline","type":"uint256"}],"name":"createMarket","outputs":[{"internalType":"uint256","name":"","type":"uint256"}],"stateMutability":"nonpayable","type":"function"},{"inputs":[{"internalType":"uint256","name":"marketId","type":"uint256"}],"name":"getMarket","outputs":[{"internalType":"string","name":"question","type":"string"},{"internalType":"uint256","name":"targetValue","type":"uint256"},{"internalType":"uint256","name":"deadline","type":"uint256"},{"internalType":"uint256","name":"yesPool","type":"uint256"},{"internalType":"uint256","name":"noPool","type":"uint256"},{"internalType":"enum RenOsOracle.MarketStatus","name":"status","type":"uint8"},{"internalType":"enum RenOsOracle.Outcome","name":"outcome","type":"uint8"},{"internalType":"uint256","name":"actualValue","type":"uint256"}],"stateMutability":"view","type":"function"},{"inputs":[],"name":"marketCount","outputs":[{"internalType":"uint256","name":"","type":"uint256"}],"stateMutability":"view","type":"function"},{"inputs":[{"internalType":"uint256","name":"","type":"uint256"}],"name":"markets","outputs":[{"internalType":"string","name":"question","type":"string"},{"internalType":"uint256","name":"targetValue","type":"uint256"},{"internalType":"uint256","name":"deadline","type":"uint256"},{"internalType":"uint256","name":"yesPool","type":"uint256"},{"internalType":"uint256","name":"noPool","type":"uint256"},{"internalType":"enum RenOsOracle.MarketStatus","name":"status","type":"uint8"},{"internalType":"enum RenOsOracle.Outcome","name":"outcome","type":"uint8"},{"internalType":"uint256","name":"actualValue","type":"uint256"},{"internalType":"string","name":"dataSource","type":"string"}],"stateMutability":"view","type":"function"},{"inputs":[],"name":"owner","outputs":[{"internalType":"address","name":"","type":"address"}],"stateMutability":"view","type":"function"},{"inputs":[{"internalType":"uint256","name":"marketId","type":"uint256"},{"internalType":"uint256","name":"actualValue","type":"uint256"},{"internalType":"string","name":"dataSource","type":"string"}],"name":"resolve","outputs":[],"stateMutability":"nonpayable","type":"function"},{"inputs":[{"internalType":"uint256","name":"marketId","type":"uint256"},{"internalType":"uint256","name":"amount","type":"uint256"},{"internalType":"bool","name":"isYes","type":"bool"}],"name":"stake","outputs":[],"stateMutability":"nonpayable","type":"function"},{"inputs":[{"internalType":"uint256","name":"","type":"uint256"},{"internalType":"address","name":"","type":"address"}],"name":"stakes","outputs":[{"internalType":"uint256","name":"amount","type":"uint256"},{"internalType":"bool","name":"isYes","type":"bool"},{"internalType":"bool","name":"claimed","type":"bool"}],"stateMutability":"view","type":"function"},{"inputs":[],"name":"usdc","outputs":[{"internalType":"contract IERC20","name":"","type":"address"}],"stateMutability":"view","type":"function"}],"evm":{"bytecode":{"linkReferences":{},"object":"60a060405234801562000010575f80fd5b506040516200250838038062002508833981810160405281019062000036919062000115565b8073ffffffffffffffffffffffffffffffffffffffff1660808173ffffffffffffffffffffffffffffffffffffffff1681525050335f806101000a81548173ffffffffffffffffffffffffffffffffffffffff021916908373ffffffffffffffffffffffffffffffffffffffff1602179055505062000145565b5f80fd5b5f73ffffffffffffffffffffffffffffffffffffffff82169050919050565b5f620000df82620000b4565b9050919050565b620000f181620000d3565b8114620000fc575f80fd5b50565b5f815190506200010f81620000e6565b92915050565b5f602082840312156200012d576200012c620000b0565b5b5f6200013c84828501620000ff565b91505092915050565b60805161239c6200016c5f395f81816104dc0152818161060c0152610742015261239c5ff3fe608060405234801561000f575f80fd5b506004361061009c575f3560e01c8063a9a3bba411610064578063a9a3bba414610130578063b1283e7714610162578063cfa51b161461019a578063eb44fdd3146101ca578063ec979082146102015761009c565b8063379607f5146100a05780633e413bee146100bc578063561b2463146100da57806375919f69146100f65780638da5cb5b14610112575b5f80fd5b6100ba60048036038101906100b591906111ab565b61021f565b005b6100c461060a565b6040516100d19190611250565b60405180910390f35b6100f460048036038101906100ef919061129e565b61062e565b005b610110600480360381019061010b919061134f565b61096b565b005b61011a610bd3565b60405161012791906113e0565b60405180910390f35b61014a60048036038101906101459190611423565b610bf6565b6040516101599392919061147f565b60405180910390f35b61017c600480360381019061017791906111ab565b610c40565b604051610191999897969594939291906115f7565b60405180910390f35b6101b460048036038101906101af9190611690565b610daf565b6040516101c19190611701565b60405180910390f35b6101e460048036038101906101df91906111ab565b611068565b6040516101f898979695949392919061171a565b60405180910390f35b61020961116a565b6040516102169190611701565b60405180910390f35b5f60025f8381526020019081526020015f2090506001808111156102465761024561153e565b5b816005015f9054906101000a900460ff1660018111156102695761026861153e565b5b146102a9576040517f08c379a00000000000000000000000000000000000000000000000000000000081526004016102a0906117e7565b60405180910390fd5b5f60035f8481526020019081526020015f205f3373ffffffffffffffffffffffffffffffffffffffff1673ffffffffffffffffffffffffffffffffffffffff1681526020019081526020015f2090505f815f01541161033d576040517f08c379a00000000000000000000000000000000000000000000000000000000081526004016103349061184f565b60405180910390fd5b8060010160019054906101000a900460ff161561038f576040517f08c379a0000000000000000000000000000000000000000000000000000000008152600401610386906118b7565b60405180910390fd5b5f600160028111156103a4576103a361153e565b5b8360050160019054906101000a900460ff1660028111156103c8576103c761153e565b5b1480156103e25750816001015f9054906101000a900460ff165b15610424575f836004015484600301546103fc9190611902565b9050836003015481845f01546104129190611935565b61041c91906119a3565b9150506104b5565b6002808111156104375761043661153e565b5b8360050160019054906101000a900460ff16600281111561045b5761045a61153e565b5b1480156104765750816001015f9054906101000a900460ff16155b156104b4575f836004015484600301546104909190611902565b9050836004015481845f01546104a69190611935565b6104b091906119a3565b9150505b5b60018260010160016101000a81548160ff0219169083151502179055505f811115610604577f000000000000000000000000000000000000000000000000000000000000000073ffffffffffffffffffffffffffffffffffffffff1663a9059cbb33836040518363ffffffff1660e01b81526004016105359291906119d3565b6020604051808303815f875af1158015610551573d5f803e3d5ffd5b505050506040513d601f19601f820116820180604052508101906105759190611a0e565b6105b4576040517f08c379a00000000000000000000000000000000000000000000000000000000081526004016105ab90611a83565b60405180910390fd5b3373ffffffffffffffffffffffffffffffffffffffff16847f4ec90e965519d92681267467f775ada5bd214aa92c0dc93d90a5e880ce9ed026836040516105fb9190611701565b60405180910390a35b50505050565b7f000000000000000000000000000000000000000000000000000000000000000081565b5f60025f8581526020019081526020015f2090505f60018111156106555761065461153e565b5b816005015f9054906101000a900460ff1660018111156106785761067761153e565b5b146106b8576040517f08c379a00000000000000000000000000000000000000000000000000000000081526004016106af90611aeb565b60405180910390fd5b806002015442106106fe576040517f08c379a00000000000000000000000000000000000000000000000000000000081526004016106f590611b53565b60405180910390fd5b5f8311610740576040517f08c379a000000000000000000000000000000000000000000000000000000000815260040161073790611bbb565b60405180910390fd5b7f000000000000000000000000000000000000000000000000000000000000000073ffffffffffffffffffffffffffffffffffffffff166323b872dd3330866040518463ffffffff1660e01b815260040161079d93929190611bd9565b6020604051808303815f875af11580156107b9573d5f803e3d5ffd5b505050506040513d601f19601f820116820180604052508101906107dd9190611a0e565b61081c576040517f08c379a000000000000000000000000000000000000000000000000000000000815260040161081390611c58565b60405180910390fd5b5f60035f8681526020019081526020015f205f3373ffffffffffffffffffffffffffffffffffffffff1673ffffffffffffffffffffffffffffffffffffffff1681526020019081526020015f2090505f815f0154146108b0576040517f08c379a00000000000000000000000000000000000000000000000000000000081526004016108a790611cc0565b60405180910390fd5b83815f018190555082816001015f6101000a81548160ff02191690831515021790555082156108f85783826003015f8282546108ec9190611902565b92505081905550610913565b83826004015f82825461090b9190611902565b925050819055505b3373ffffffffffffffffffffffffffffffffffffffff16857fbab40d9491cc04da47e7dabdf56f30a426011885e1c17a38cdb02f0ac5330bf8868660405161095c929190611cde565b60405180910390a35050505050565b5f8054906101000a900473ffffffffffffffffffffffffffffffffffffffff1673ffffffffffffffffffffffffffffffffffffffff163373ffffffffffffffffffffffffffffffffffffffff16146109f8576040517f08c379a00000000000000000000000000000000000000000000000000000000081526004016109ef90611d4f565b60405180910390fd5b5f60025f8681526020019081526020015f2090505f6001811115610a1f57610a1e61153e565b5b816005015f9054906101000a900460ff166001811115610a4257610a4161153e565b5b14610a82576040517f08c379a0000000000000000000000000000000000000000000000000000000008152600401610a7990611db7565b60405180910390fd5b8060020154421015610ac9576040517f08c379a0000000000000000000000000000000000000000000000000000000008152600401610ac090611e1f565b60405180910390fd5b8381600601819055508282826007019182610ae5929190612065565b506001816005015f6101000a81548160ff02191690836001811115610b0d57610b0c61153e565b5b021790555080600101548410610b4f5760018160050160016101000a81548160ff02191690836002811115610b4557610b4461153e565b5b0217905550610b7d565b60028160050160016101000a81548160ff02191690836002811115610b7757610b7661153e565b5b02179055505b847f634e31f9de664bdeab539fcd68c5208bbcd03e16c31e4d1192a5f8d67c5bc7d58260050160019054906101000a900460ff16868686604051610bc4949392919061216c565b60405180910390a25050505050565b5f8054906101000a900473ffffffffffffffffffffffffffffffffffffffff1681565b6003602052815f5260405f20602052805f5260405f205f9150915050805f015490806001015f9054906101000a900460ff16908060010160019054906101000a900460ff16905083565b6002602052805f5260405f205f91509050805f018054610c5f90611ea1565b80601f0160208091040260200160405190810160405280929190818152602001828054610c8b90611ea1565b8015610cd65780601f10610cad57610100808354040283529160200191610cd6565b820191905f5260205f20905b815481529060010190602001808311610cb957829003601f168201915b505050505090806001015490806002015490806003015490806004015490806005015f9054906101000a900460ff16908060050160019054906101000a900460ff1690806006015490806007018054610d2e90611ea1565b80601f0160208091040260200160405190810160405280929190818152602001828054610d5a90611ea1565b8015610da55780601f10610d7c57610100808354040283529160200191610da5565b820191905f5260205f20905b815481529060010190602001808311610d8857829003601f168201915b5050505050905089565b5f805f9054906101000a900473ffffffffffffffffffffffffffffffffffffffff1673ffffffffffffffffffffffffffffffffffffffff163373ffffffffffffffffffffffffffffffffffffffff1614610e3e576040517f08c379a0000000000000000000000000000000000000000000000000000000008152600401610e3590611d4f565b60405180910390fd5b428211610e80576040517f08c379a0000000000000000000000000000000000000000000000000000000008152600401610e77906121f4565b60405180910390fd5b5f60015f815480929190610e9390612212565b91905055905060405180610120016040528087878080601f0160208091040260200160405190810160405280939291908181526020018383808284375f81840152601f19601f8201169050808301925050505050505081526020018581526020018481526020015f81526020015f81526020015f6001811115610f1957610f1861153e565b5b81526020015f6002811115610f3157610f3061153e565b5b81526020015f815260200160405180602001604052805f81525081525060025f8381526020019081526020015f205f820151815f019081610f729190612259565b506020820151816001015560408201518160020155606082015181600301556080820151816004015560a0820151816005015f6101000a81548160ff02191690836001811115610fc557610fc461153e565b5b021790555060c08201518160050160016101000a81548160ff02191690836002811115610ff557610ff461153e565b5b021790555060e0820151816006015561010082015181600701908161101a9190612259565b50905050807f208e61cb94f388de8317e3bf4569be2a912366b1d5a8df15cac962fea10cea26878787876040516110549493929190612328565b60405180910390a280915050949350505050565b60605f805f805f805f8060025f8b81526020019081526020015f209050805f018160010154826002015483600301548460040154856005015f9054906101000a900460ff168660050160019054906101000a900460ff1687600601548780546110d090611ea1565b80601f01602080910402602001604051908101604052809291908181526020018280546110fc90611ea1565b80156111475780601f1061111e57610100808354040283529160200191611147565b820191905f5260205f20905b81548152906001019060200180831161112a57829003601f168201915b505050505097509850985098509850985098509850985050919395975091939597565b60015481565b5f80fd5b5f80fd5b5f819050919050565b61118a81611178565b8114611194575f80fd5b50565b5f813590506111a581611181565b92915050565b5f602082840312156111c0576111bf611170565b5b5f6111cd84828501611197565b91505092915050565b5f73ffffffffffffffffffffffffffffffffffffffff82169050919050565b5f819050919050565b5f61121861121361120e846111d6565b6111f5565b6111d6565b9050919050565b5f611229826111fe565b9050919050565b5f61123a8261121f565b9050919050565b61124a81611230565b82525050565b5f6020820190506112635f830184611241565b92915050565b5f8115159050919050565b61127d81611269565b8114611287575f80fd5b50565b5f8135905061129881611274565b92915050565b5f805f606084860312156112b5576112b4611170565b5b5f6112c286828701611197565b93505060206112d386828701611197565b92505060406112e48682870161128a565b9150509250925092565b5f80fd5b5f80fd5b5f80fd5b5f8083601f84011261130f5761130e6112ee565b5b8235905067ffffffffffffffff81111561132c5761132b6112f2565b5b602083019150836001820283011115611348576113476112f6565b5b9250929050565b5f805f806060858703121561136757611366611170565b5b5f61137487828801611197565b945050602061138587828801611197565b935050604085013567ffffffffffffffff8111156113a6576113a5611174565b5b6113b2878288016112fa565b925092505092959194509250565b5f6113ca826111d6565b9050919050565b6113da816113c0565b82525050565b5f6020820190506113f35f8301846113d1565b92915050565b611402816113c0565b811461140c575f80fd5b50565b5f8135905061141d816113f9565b92915050565b5f806040838503121561143957611438611170565b5b5f61144685828601611197565b92505060206114578582860161140f565b9150509250929050565b61146a81611178565b82525050565b61147981611269565b82525050565b5f6060820190506114925f830186611461565b61149f6020830185611470565b6114ac6040830184611470565b949350505050565b5f81519050919050565b5f82825260208201905092915050565b5f5b838110156114eb5780820151818401526020810190506114d0565b5f8484015250505050565b5f601f19601f8301169050919050565b5f611510826114b4565b61151a81856114be565b935061152a8185602086016114ce565b611533816114f6565b840191505092915050565b7f4e487b71000000000000000000000000000000000000000000000000000000005f52602160045260245ffd5b6002811061157c5761157b61153e565b5b50565b5f81905061158c8261156b565b919050565b5f61159b8261157f565b9050919050565b6115ab81611591565b82525050565b600381106115c2576115c161153e565b5b50565b5f8190506115d2826115b1565b919050565b5f6115e1826115c5565b9050919050565b6115f1816115d7565b82525050565b5f610120820190508181035f830152611610818c611506565b905061161f602083018b611461565b61162c604083018a611461565b6116396060830189611461565b6116466080830188611461565b61165360a08301876115a2565b61166060c08301866115e8565b61166d60e0830185611461565b8181036101008301526116808184611506565b90509a9950505050505050505050565b5f805f80606085870312156116a8576116a7611170565b5b5f85013567ffffffffffffffff8111156116c5576116c4611174565b5b6116d1878288016112fa565b945094505060206116e487828801611197565b92505060406116f587828801611197565b91505092959194509250565b5f6020820190506117145f830184611461565b92915050565b5f610100820190508181035f830152611733818b611506565b9050611742602083018a611461565b61174f6040830189611461565b61175c6060830188611461565b6117696080830187611461565b61177660a08301866115a2565b61178360c08301856115e8565b61179060e0830184611461565b9998505050505050505050565b7f4e6f74207265736f6c76656400000000000000000000000000000000000000005f82015250565b5f6117d1600c836114be565b91506117dc8261179d565b602082019050919050565b5f6020820190508181035f8301526117fe816117c5565b9050919050565b7f4e6f207374616b650000000000000000000000000000000000000000000000005f82015250565b5f6118396008836114be565b915061184482611805565b602082019050919050565b5f6020820190508181035f8301526118668161182d565b9050919050565b7f416c726561647920636c61696d656400000000000000000000000000000000005f82015250565b5f6118a1600f836114be565b91506118ac8261186d565b602082019050919050565b5f6020820190508181035f8301526118ce81611895565b9050919050565b7f4e487b71000000000000000000000000000000000000000000000000000000005f52601160045260245ffd5b5f61190c82611178565b915061191783611178565b925082820190508082111561192f5761192e6118d5565b5b92915050565b5f61193f82611178565b915061194a83611178565b925082820261195881611178565b9150828204841483151761196f5761196e6118d5565b5b5092915050565b7f4e487b71000000000000000000000000000000000000000000000000000000005f52601260045260245ffd5b5f6119ad82611178565b91506119b883611178565b9250826119c8576119c7611976565b5b828204905092915050565b5f6040820190506119e65f8301856113d1565b6119f36020830184611461565b9392505050565b5f81519050611a0881611274565b92915050565b5f60208284031215611a2357611a22611170565b5b5f611a30848285016119fa565b91505092915050565b7f5061796f7574206661696c6564000000000000000000000000000000000000005f82015250565b5f611a6d600d836114be565b9150611a7882611a39565b602082019050919050565b5f6020820190508181035f830152611a9a81611a61565b9050919050565b7f4d61726b6574206e6f74206163746976650000000000000000000000000000005f82015250565b5f611ad56011836114be565b9150611ae082611aa1565b602082019050919050565b5f6020820190508181035f830152611b0281611ac9565b9050919050565b7f42657474696e6720636c6f7365640000000000000000000000000000000000005f82015250565b5f611b3d600e836114be565b9150611b4882611b09565b602082019050919050565b5f6020820190508181035f830152611b6a81611b31565b9050919050565b7f4d757374207374616b65203e20300000000000000000000000000000000000005f82015250565b5f611ba5600e836114be565b9150611bb082611b71565b602082019050919050565b5f6020820190508181035f830152611bd281611b99565b9050919050565b5f606082019050611bec5f8301866113d1565b611bf960208301856113d1565b611c066040830184611461565b949350505050565b7f5472616e73666572206661696c656400000000000000000000000000000000005f82015250565b5f611c42600f836114be565b9150611c4d82611c0e565b602082019050919050565b5f6020820190508181035f830152611c6f81611c36565b9050919050565b7f416c7265616479207374616b65640000000000000000000000000000000000005f82015250565b5f611caa600e836114be565b9150611cb582611c76565b602082019050919050565b5f6020820190508181035f830152611cd781611c9e565b9050919050565b5f604082019050611cf15f830185611461565b611cfe6020830184611470565b9392505050565b7f4f6e6c79206f776e6572000000000000000000000000000000000000000000005f82015250565b5f611d39600a836114be565b9150611d4482611d05565b602082019050919050565b5f6020820190508181035f830152611d6681611d2d565b9050919050565b7f416c7265616479207265736f6c766564000000000000000000000000000000005f82015250565b5f611da16010836114be565b9150611dac82611d6d565b602082019050919050565b5f6020820190508181035f830152611dce81611d95565b9050919050565b7f446561646c696e65206e6f7420726561636865640000000000000000000000005f82015250565b5f611e096014836114be565b9150611e1482611dd5565b602082019050919050565b5f6020820190508181035f830152611e3681611dfd565b9050919050565b5f82905092915050565b7f4e487b71000000000000000000000000000000000000000000000000000000005f52604160045260245ffd5b7f4e487b71000000000000000000000000000000000000000000000000000000005f52602260045260245ffd5b5f6002820490506001821680611eb857607f821691505b602082108103611ecb57611eca611e74565b5b50919050565b5f819050815f5260205f209050919050565b5f6020601f8301049050919050565b5f82821b905092915050565b5f60088302611f2d7fffffffffffffffffffffffffffffffffffffffffffffffffffffffffffffffff82611ef2565b611f378683611ef2565b95508019841693508086168417925050509392505050565b5f611f69611f64611f5f84611178565b6111f5565b611178565b9050919050565b5f819050919050565b611f8283611f4f565b611f96611f8e82611f70565b848454611efe565b825550505050565b5f90565b611faa611f9e565b611fb5818484611f79565b505050565b5b81811015611fd857611fcd5f82611fa2565b600181019050611fbb565b5050565b601f82111561201d57611fee81611ed1565b611ff784611ee3565b81016020851015612006578190505b61201a61201285611ee3565b830182611fba565b50505b505050565b5f82821c905092915050565b5f61203d5f1984600802612022565b1980831691505092915050565b5f612055838361202e565b9150826002028217905092915050565b61206f8383611e3d565b67ffffffffffffffff81111561208857612087611e47565b5b6120928254611ea1565b61209d828285611fdc565b5f601f8311600181146120ca575f84156120b8578287013590505b6120c2858261204a565b865550612129565b601f1984166120d886611ed1565b5f5b828110156120ff578489013582556001820191506020850194506020810190506120da565b8683101561211c5784890135612118601f89168261202e565b8355505b6001600288020188555050505b50505050505050565b828183375f83830152505050565b5f61214b83856114be565b9350612158838584612132565b612161836114f6565b840190509392505050565b5f60608201905061217f5f8301876115e8565b61218c6020830186611461565b818103604083015261219f818486612140565b905095945050505050565b7f446561646c696e65206d757374206265206675747572650000000000000000005f82015250565b5f6121de6017836114be565b91506121e9826121aa565b602082019050919050565b5f6020820190508181035f83015261220b816121d2565b9050919050565b5f61221c82611178565b91507fffffffffffffffffffffffffffffffffffffffffffffffffffffffffffffffff820361224e5761224d6118d5565b5b600182019050919050565b612262826114b4565b67ffffffffffffffff81111561227b5761227a611e47565b5b6122858254611ea1565b612290828285611fdc565b5f60209050601f8311600181146122c1575f84156122af578287015190505b6122b9858261204a565b865550612320565b601f1984166122cf86611ed1565b5f5b828110156122f6578489015182556001820191506020850194506020810190506122d1565b86831015612313578489015161230f601f89168261202e565b8355505b6001600288020188555050505b505050505050565b5f6060820190508181035f830152612341818688612140565b90506123506020830185611461565b61235d6040830184611461565b9594505050505056fea26469706673582212200b181eea08761066ef28ccdafcba31b436bf1f55f48da6445f82e206c3d6f85664736f6c63430008170033","opcodes":"PUSH1 0xA0 PUSH1 0x40 MSTORE CALLVALUE DUP1 ISZERO PUSH3 0x10 JUMPI PUSH0 DUP1 REVERT JUMPDEST POP PUSH1 0x40 MLOAD PUSH3 0x2508 CODESIZE SUB DUP1 PUSH3 0x2508 DUP4 CODECOPY DUP2 DUP2 ADD PUSH1 0x40 MSTORE DUP2 ADD SWAP1 PUSH3 0x36 SWAP2 SWAP1 PUSH3 0x115 JUMP JUMPDEST DUP1 PUSH20 0xFFFFFFFFFFFFFFFFFFFFFFFFFFFFFFFFFFFFFFFF AND PUSH1 0x80 DUP2 PUSH20 0xFFFFFFFFFFFFFFFFFFFFFFFFFFFFFFFFFFFFFFFF AND DUP2 MSTORE POP POP CALLER PUSH0 DUP1 PUSH2 0x100 EXP DUP2 SLOAD DUP2 PUSH20 0xFFFFFFFFFFFFFFFFFFFFFFFFFFFFFFFFFFFFFFFF MUL NOT AND SWAP1 DUP4 PUSH20 0xFFFFFFFFFFFFFFFFFFFFFFFFFFFFFFFFFFFFFFFF AND MUL OR SWAP1 SSTORE POP POP PUSH3 0x145 JUMP JUMPDEST PUSH0 DUP1 REVERT JUMPDEST PUSH0 PUSH20 0xFFFFFFFFFFFFFFFFFFFFFFFFFFFFFFFFFFFFFFFF DUP3 AND SWAP1 POP SWAP2 SWAP1 POP JUMP JUMPDEST PUSH0 PUSH3 0xDF DUP3 PUSH3 0xB4 JUMP JUMPDEST SWAP1 POP SWAP2 SWAP1 POP JUMP JUMPDEST PUSH3 0xF1 DUP2 PUSH3 0xD3 JUMP JUMPDEST DUP2 EQ PUSH3 0xFC JUMPI PUSH0 DUP1 REVERT JUMPDEST POP JUMP JUMPDEST PUSH0 DUP2 MLOAD SWAP1 POP PUSH3 0x10F DUP2 PUSH3 0xE6 JUMP JUMPDEST SWAP3 SWAP2 POP POP JUMP JUMPDEST PUSH0 PUSH1 0x20 DUP3 DUP5 SUB SLT ISZERO PUSH3 0x12D JUMPI PUSH3 0x12C PUSH3 0xB0 JUMP JUMPDEST JUMPDEST PUSH0 PUSH3 0x13C DUP5 DUP3 DUP6 ADD PUSH3 0xFF JUMP JUMPDEST SWAP2 POP POP SWAP3 SWAP2 POP POP JUMP JUMPDEST PUSH1 0x80 MLOAD PUSH2 0x239C PUSH3 0x16C PUSH0 CODECOPY PUSH0 DUP2 DUP2 PUSH2 0x4DC ADD MSTORE DUP2 DUP2 PUSH2 0x60C ADD MSTORE PUSH2 0x742 ADD MSTORE PUSH2 0x239C PUSH0 RETURN INVALID PUSH1 0x80 PUSH1 0x40 MSTORE CALLVALUE DUP1 ISZERO PUSH2 0xF JUMPI PUSH0 DUP1 REVERT JUMPDEST POP PUSH1 0x4 CALLDATASIZE LT PUSH2 0x9C JUMPI PUSH0 CALLDATALOAD PUSH1 0xE0 SHR DUP1 PUSH4 0xA9A3BBA4 GT PUSH2 0x64 JUMPI DUP1 PUSH4 0xA9A3BBA4 EQ PUSH2 0x130 JUMPI DUP1 PUSH4 0xB1283E77 EQ PUSH2 0x162 JUMPI DUP1 PUSH4 0xCFA51B16 EQ PUSH2 0x19A JUMPI DUP1 PUSH4 0xEB44FDD3 EQ PUSH2 0x1CA JUMPI DUP1 PUSH4 0xEC979082 EQ PUSH2 0x201 JUMPI PUSH2 0x9C JUMP JUMPDEST DUP1 PUSH4 0x379607F5 EQ PUSH2 0xA0 JUMPI DUP1 PUSH4 0x3E413BEE EQ PUSH2 0xBC JUMPI DUP1 PUSH4 0x561B2463 EQ PUSH2 0xDA JUMPI DUP1 PUSH4 0x75919F69 EQ PUSH2 0xF6 JUMPI DUP1 PUSH4 0x8DA5CB5B EQ PUSH2 0x112 JUMPI JUMPDEST PUSH0 DUP1 REVERT JUMPDEST PUSH2 0xBA PUSH1 0x4 DUP1 CALLDATASIZE SUB DUP2 ADD SWAP1 PUSH2 0xB5 SWAP2 SWAP1 PUSH2 0x11AB JUMP JUMPDEST PUSH2 0x21F JUMP JUMPDEST STOP JUMPDEST PUSH2 0xC4 PUSH2 0x60A JUMP JUMPDEST PUSH1 0x40 MLOAD PUSH2 0xD1 SWAP2 SWAP1 PUSH2 0x1250 JUMP JUMPDEST PUSH1 0x40 MLOAD DUP1 SWAP2 SUB SWAP1 RETURN JUMPDEST PUSH2 0xF4 PUSH1 0x4 DUP1 CALLDATASIZE SUB DUP2 ADD SWAP1 PUSH2 0xEF SWAP2 SWAP1 PUSH2 0x129E JUMP JUMPDEST PUSH2 0x62E JUMP JUMPDEST STOP JUMPDEST PUSH2 0x110 PUSH1 0x4 DUP1 CALLDATASIZE SUB DUP2 ADD SWAP1 PUSH2 0x10B SWAP2 SWAP1 PUSH2 0x134F JUMP JUMPDEST PUSH2 0x96B JUMP JUMPDEST STOP JUMPDEST PUSH2 0x11A PUSH2 0xBD3 JUMP JUMPDEST PUSH1 0x40 MLOAD PUSH2 0x127 SWAP2 SWAP1 PUSH2 0x13E0 JUMP JUMPDEST PUSH1 0x40 MLOAD DUP1 SWAP2 SUB SWAP1 RETURN JUMPDEST PUSH2 0x14A PUSH1 0x4 DUP1 CALLDATASIZE SUB DUP2 ADD SWAP1 PUSH2 0x145 SWAP2 SWAP1 PUSH2 0x1423 JUMP JUMPDEST PUSH2 0xBF6 JUMP JUMPDEST PUSH1 0x40 MLOAD PUSH2 0x159 SWAP4 SWAP3 SWAP2 SWAP1 PUSH2 0x147F JUMP JUMPDEST PUSH1 0x40 MLOAD DUP1 SWAP2 SUB SWAP1 RETURN JUMPDEST PUSH2 0x17C PUSH1 0x4 DUP1 CALLDATASIZE SUB DUP2 ADD SWAP1 PUSH2 0x177 SWAP2 SWAP1 PUSH2 0x11AB JUMP JUMPDEST PUSH2 0xC40 JUMP JUMPDEST PUSH1 0x40 MLOAD PUSH2 0x191 SWAP10 SWAP9 SWAP8 SWAP7 SWAP6 SWAP5 SWAP4 SWAP3 SWAP2 SWAP1 PUSH2 0x15F7 JUMP JUMPDEST PUSH1 0x40 MLOAD DUP1 SWAP2 SUB SWAP1 RETURN JUMPDEST PUSH2 0x1B4 PUSH1 0x4 DUP1 CALLDATASIZE SUB DUP2 ADD SWAP1 PUSH2 0x1AF SWAP2 SWAP1 PUSH2 0x1690 JUMP JUMPDEST PUSH2 0xDAF JUMP JUMPDEST PUSH1 0x40 MLOAD PUSH2 0x1C1 SWAP2 SWAP1 PUSH2 0x1701 JUMP JUMPDEST PUSH1 0x40 MLOAD DUP1 SWAP2 SUB SWAP1 RETURN JUMPDEST PUSH2 0x1E4 PUSH1 0x4 DUP1 CALLDATASIZE SUB DUP2 ADD SWAP1 PUSH2 0x1DF SWAP2 SWAP1 PUSH2 0x11AB JUMP JUMPDEST PUSH2 0x1068 JUMP JUMPDEST PUSH1 0x40 MLOAD PUSH2 0x1F8 SWAP9 SWAP8 SWAP7 SWAP6 SWAP5 SWAP4 SWAP3 SWAP2 SWAP1 PUSH2 0x171A JUMP JUMPDEST PUSH1 0x40 MLOAD DUP1 SWAP2 SUB SWAP1 RETURN JUMPDEST PUSH2 0x209 PUSH2 0x116A JUMP JUMPDEST PUSH1 0x40 MLOAD PUSH2 0x216 SWAP2 SWAP1 PUSH2 0x1701 JUMP JUMPDEST PUSH1 0x40 MLOAD DUP1 SWAP2 SUB SWAP1 RETURN JUMPDEST PUSH0 PUSH1 0x2 PUSH0 DUP4 DUP2 MSTORE PUSH1 0x20 ADD SWAP1 DUP2 MSTORE PUSH1 0x20 ADD PUSH0 KECCAK256 SWAP1 POP PUSH1 0x1 DUP1 DUP2 GT ISZERO PUSH2 0x246 JUMPI PUSH2 0x245 PUSH2 0x153E JUMP JUMPDEST JUMPDEST DUP2 PUSH1 0x5 ADD PUSH0 SWAP1 SLOAD SWAP1 PUSH2 0x100 EXP SWAP1 DIV PUSH1 0xFF AND PUSH1 0x1 DUP2 GT ISZERO PUSH2 0x269 JUMPI PUSH2 0x268 PUSH2 0x153E JUMP JUMPDEST JUMPDEST EQ PUSH2 0x2A9 JUMPI PUSH1 0x40 MLOAD PUSH32 0x8C379A000000000000000000000000000000000000000000000000000000000 DUP2 MSTORE PUSH1 0x4 ADD PUSH2 0x2A0 SWAP1 PUSH2 0x17E7 JUMP JUMPDEST PUSH1 0x40 MLOAD DUP1 SWAP2 SUB SWAP1 REVERT JUMPDEST PUSH0 PUSH1 0x3 PUSH0 DUP5 DUP2 MSTORE PUSH1 0x20 ADD SWAP1 DUP2 MSTORE PUSH1 0x20 ADD PUSH0 KECCAK256 PUSH0 CALLER PUSH20 0xFFFFFFFFFFFFFFFFFFFFFFFFFFFFFFFFFFFFFFFF AND PUSH20 0xFFFFFFFFFFFFFFFFFFFFFFFFFFFFFFFFFFFFFFFF AND DUP2 MSTORE PUSH1 0x20 ADD SWAP1 DUP2 MSTORE PUSH1 0x20 ADD PUSH0 KECCAK256 SWAP1 POP PUSH0 DUP2 PUSH0 ADD SLOAD GT PUSH2 0x33D JUMPI PUSH1 0x40 MLOAD PUSH32 0x8C379A000000000000000000000000000000000000000000000000000000000 DUP2 MSTORE PUSH1 0x4 ADD PUSH2 0x334 SWAP1 PUSH2 0x184F JUMP JUMPDEST PUSH1 0x40 MLOAD DUP1 SWAP2 SUB SWAP1 REVERT JUMPDEST DUP1 PUSH1 0x1 ADD PUSH1 0x1 SWAP1 SLOAD SWAP1 PUSH2 0x100 EXP SWAP1 DIV PUSH1 0xFF AND ISZERO PUSH2 0x38F JUMPI PUSH1 0x40 MLOAD PUSH32 0x8C379A000000000000000000000000000000000000000000000000000000000 DUP2 MSTORE PUSH1 0x4 ADD PUSH2 0x386 SWAP1 PUSH2 0x18B7 JUMP JUMPDEST PUSH1 0x40 MLOAD DUP1 SWAP2 SUB SWAP1 REVERT JUMPDEST PUSH0 PUSH1 0x1 PUSH1 0x2 DUP2 GT ISZERO PUSH2 0x3A4 JUMPI PUSH2 0x3A3 PUSH2 0x153E JUMP JUMPDEST JUMPDEST DUP4 PUSH1 0x5 ADD PUSH1 0x1 SWAP1 SLOAD SWAP1 PUSH2 0x100 EXP SWAP1 DIV PUSH1 0xFF AND PUSH1 0x2 DUP2 GT ISZERO PUSH2 0x3C8 JUMPI PUSH2 0x3C7 PUSH2 0x153E JUMP JUMPDEST JUMPDEST EQ DUP1 ISZERO PUSH2 0x3E2 JUMPI POP DUP2 PUSH1 0x1 ADD PUSH0 SWAP1 SLOAD SWAP1 PUSH2 0x100 EXP SWAP1 DIV PUSH1 0xFF AND JUMPDEST ISZERO PUSH2 0x424 JUMPI PUSH0 DUP4 PUSH1 0x4 ADD SLOAD DUP5 PUSH1 0x3 ADD SLOAD PUSH2 0x3FC SWAP2 SWAP1 PUSH2 0x1902 JUMP JUMPDEST SWAP1 POP DUP4 PUSH1 0x3 ADD SLOAD DUP2 DUP5 PUSH0 ADD SLOAD PUSH2 0x412 SWAP2 SWAP1 PUSH2 0x1935 JUMP JUMPDEST PUSH2 0x41C SWAP2 SWAP1 PUSH2 0x19A3 JUMP JUMPDEST SWAP2 POP POP PUSH2 0x4B5 JUMP JUMPDEST PUSH1 0x2 DUP1 DUP2 GT ISZERO PUSH2 0x437 JUMPI PUSH2 0x436 PUSH2 0x153E JUMP JUMPDEST JUMPDEST DUP4 PUSH1 0x5 ADD PUSH1 0x1 SWAP1 SLOAD SWAP1 PUSH2 0x100 EXP SWAP1 DIV PUSH1 0xFF AND PUSH1 0x2 DUP2 GT ISZERO PUSH2 0x45B JUMPI PUSH2 0x45A PUSH2 0x153E JUMP JUMPDEST JUMPDEST EQ DUP1 ISZERO PUSH2 0x476 JUMPI POP DUP2 PUSH1 0x1 ADD PUSH0 SWAP1 SLOAD SWAP1 PUSH2 0x100 EXP SWAP1 DIV PUSH1 0xFF AND ISZERO JUMPDEST ISZERO PUSH2 0x4B4 JUMPI PUSH0 DUP4 PUSH1 0x4 ADD SLOAD DUP5 PUSH1 0x3 ADD SLOAD PUSH2 0x490 SWAP2 SWAP1 PUSH2 0x1902 JUMP JUMPDEST SWAP1 POP DUP4 PUSH1 0x4 ADD SLOAD DUP2 DUP5 PUSH0 ADD SLOAD PUSH2 0x4A6 SWAP2 SWAP1 PUSH2 0x1935 JUMP JUMPDEST PUSH2 0x4B0 SWAP2 SWAP1 PUSH2 0x19A3 JUMP JUMPDEST SWAP2 POP POP JUMPDEST JUMPDEST PUSH1 0x1 DUP3 PUSH1 0x1 ADD PUSH1 0x1 PUSH2 0x100 EXP DUP2 SLOAD DUP2 PUSH1 0xFF MUL NOT AND SWAP1 DUP4 ISZERO ISZERO MUL OR SWAP1 SSTORE POP PUSH0 DUP2 GT ISZERO PUSH2 0x604 JUMPI PUSH32 0x0 PUSH20 0xFFFFFFFFFFFFFFFFFFFFFFFFFFFFFFFFFFFFFFFF AND PUSH4 0xA9059CBB CALLER DUP4 PUSH1 0x40 MLOAD DUP4 PUSH4 0xFFFFFFFF AND PUSH1 0xE0 SHL DUP2 MSTORE PUSH1 0x4 ADD PUSH2 0x535 SWAP3 SWAP2 SWAP1 PUSH2 0x19D3 JUMP JUMPDEST PUSH1 0x20 PUSH1 0x40 MLOAD DUP1 DUP4 SUB DUP2 PUSH0 DUP8 GAS CALL ISZERO DUP1 ISZERO PUSH2 0x551 JUMPI RETURNDATASIZE PUSH0 DUP1 RETURNDATACOPY RETURNDATASIZE PUSH0 REVERT JUMPDEST POP POP POP POP PUSH1 0x40 MLOAD RETURNDATASIZE PUSH1 0x1F NOT PUSH1 0x1F DUP3 ADD AND DUP3 ADD DUP1 PUSH1 0x40 MSTORE POP DUP2 ADD SWAP1 PUSH2 0x575 SWAP2 SWAP1 PUSH2 0x1A0E JUMP JUMPDEST PUSH2 0x5B4 JUMPI PUSH1 0x40 MLOAD PUSH32 0x8C379A000000000000000000000000000000000000000000000000000000000 DUP2 MSTORE PUSH1 0x4 ADD PUSH2 0x5AB SWAP1 PUSH2 0x1A83 JUMP JUMPDEST PUSH1 0x40 MLOAD DUP1 SWAP2 SUB SWAP1 REVERT JUMPDEST CALLER PUSH20 0xFFFFFFFFFFFFFFFFFFFFFFFFFFFFFFFFFFFFFFFF AND DUP5 PUSH32 0x4EC90E965519D92681267467F775ADA5BD214AA92C0DC93D90A5E880CE9ED026 DUP4 PUSH1 0x40 MLOAD PUSH2 0x5FB SWAP2 SWAP1 PUSH2 0x1701 JUMP JUMPDEST PUSH1 0x40 MLOAD DUP1 SWAP2 SUB SWAP1 LOG3 JUMPDEST POP POP POP POP JUMP JUMPDEST PUSH32 0x0 DUP2 JUMP JUMPDEST PUSH0 PUSH1 0x2 PUSH0 DUP6 DUP2 MSTORE PUSH1 0x20 ADD SWAP1 DUP2 MSTORE PUSH1 0x20 ADD PUSH0 KECCAK256 SWAP1 POP PUSH0 PUSH1 0x1 DUP2 GT ISZERO PUSH2 0x655 JUMPI PUSH2 0x654 PUSH2 0x153E JUMP JUMPDEST JUMPDEST DUP2 PUSH1 0x5 ADD PUSH0 SWAP1 SLOAD SWAP1 PUSH2 0x100 EXP SWAP1 DIV PUSH1 0xFF AND PUSH1 0x1 DUP2 GT ISZERO PUSH2 0x678 JUMPI PUSH2 0x677 PUSH2 0x153E JUMP JUMPDEST JUMPDEST EQ PUSH2 0x6B8 JUMPI PUSH1 0x40 MLOAD PUSH32 0x8C379A000000000000000000000000000000000000000000000000000000000 DUP2 MSTORE PUSH1 0x4 ADD PUSH2 0x6AF SWAP1 PUSH2 0x1AEB JUMP JUMPDEST PUSH1 0x40 MLOAD DUP1 SWAP2 SUB SWAP1 REVERT JUMPDEST DUP1 PUSH1 0x2 ADD SLOAD TIMESTAMP LT PUSH2 0x6FE JUMPI PUSH1 0x40 MLOAD PUSH32 0x8C379A000000000000000000000000000000000000000000000000000000000 DUP2 MSTORE PUSH1 0x4 ADD PUSH2 0x6F5 SWAP1 PUSH2 0x1B53 JUMP JUMPDEST PUSH1 0x40 MLOAD DUP1 SWAP2 SUB SWAP1 REVERT JUMPDEST PUSH0 DUP4 GT PUSH2 0x740 JUMPI PUSH1 0x40 MLOAD PUSH32 0x8C379A000000000000000000000000000000000000000000000000000000000 DUP2 MSTORE PUSH1 0x4 ADD PUSH2 0x737 SWAP1 PUSH2 0x1BBB JUMP JUMPDEST PUSH1 0x40 MLOAD DUP1 SWAP2 SUB SWAP1 REVERT JUMPDEST PUSH32 0x0 PUSH20 0xFFFFFFFFFFFFFFFFFFFFFFFFFFFFFFFFFFFFFFFF AND PUSH4 0x23B872DD CALLER ADDRESS DUP7 PUSH1 0x40 MLOAD DUP5 PUSH4 0xFFFFFFFF AND PUSH1 0xE0 SHL DUP2 MSTORE PUSH1 0x4 ADD PUSH2 0x79D SWAP4 SWAP3 SWAP2 SWAP1 PUSH2 0x1BD9 JUMP JUMPDEST PUSH1 0x20 PUSH1 0x40 MLOAD DUP1 DUP4 SUB DUP2 PUSH0 DUP8 GAS CALL ISZERO DUP1 ISZERO PUSH2 0x7B9 JUMPI RETURNDATASIZE PUSH0 DUP1 RETURNDATACOPY RETURNDATASIZE PUSH0 REVERT JUMPDEST POP POP POP POP PUSH1 0x40 MLOAD RETURNDATASIZE PUSH1 0x1F NOT PUSH1 0x1F DUP3 ADD AND DUP3 ADD DUP1 PUSH1 0x40 MSTORE POP DUP2 ADD SWAP1 PUSH2 0x7DD SWAP2 SWAP1 PUSH2 0x1A0E JUMP JUMPDEST PUSH2 0x81C JUMPI PUSH1 0x40 MLOAD PUSH32 0x8C379A000000000000000000000000000000000000000000000000000000000 DUP2 MSTORE PUSH1 0x4 ADD PUSH2 0x813 SWAP1 PUSH2 0x1C58 JUMP JUMPDEST PUSH1 0x40 MLOAD DUP1 SWAP2 SUB SWAP1 REVERT JUMPDEST PUSH0 PUSH1 0x3 PUSH0 DUP7 DUP2 MSTORE PUSH1 0x20 ADD SWAP1 DUP2 MSTORE PUSH1 0x20 ADD PUSH0 KECCAK256 PUSH0 CALLER PUSH20 0xFFFFFFFFFFFFFFFFFFFFFFFFFFFFFFFFFFFFFFFF AND PUSH20 0xFFFFFFFFFFFFFFFFFFFFFFFFFFFFFFFFFFFFFFFF AND DUP2 MSTORE PUSH1 0x20 ADD SWAP1 DUP2 MSTORE PUSH1 0x20 ADD PUSH0 KECCAK256 SWAP1 POP PUSH0 DUP2 PUSH0 ADD SLOAD EQ PUSH2 0x8B0 JUMPI PUSH1 0x40 MLOAD PUSH32 0x8C379A000000000000000000000000000000000000000000000000000000000 DUP2 MSTORE PUSH1 0x4 ADD PUSH2 0x8A7 SWAP1 PUSH2 0x1CC0 JUMP JUMPDEST PUSH1 0x40 MLOAD DUP1 SWAP2 SUB SWAP1 REVERT JUMPDEST DUP4 DUP2 PUSH0 ADD DUP2 SWAP1 SSTORE POP DUP3 DUP2 PUSH1 0x1 ADD PUSH0 PUSH2 0x100 EXP DUP2 SLOAD DUP2 PUSH1 0xFF MUL NOT AND SWAP1 DUP4 ISZERO ISZERO MUL OR SWAP1 SSTORE POP DUP3 ISZERO PUSH2 0x8F8 JUMPI DUP4 DUP3 PUSH1 0x3 ADD PUSH0 DUP3 DUP3 SLOAD PUSH2 0x8EC SWAP2 SWAP1 PUSH2 0x1902 JUMP JUMPDEST SWAP3 POP POP DUP2 SWAP1 SSTORE POP PUSH2 0x913 JUMP JUMPDEST DUP4 DUP3 PUSH1 0x4 ADD PUSH0 DUP3 DUP3 SLOAD PUSH2 0x90B SWAP2 SWAP1 PUSH2 0x1902 JUMP JUMPDEST SWAP3 POP POP DUP2 SWAP1 SSTORE POP JUMPDEST CALLER PUSH20 0xFFFFFFFFFFFFFFFFFFFFFFFFFFFFFFFFFFFFFFFF AND DUP6 PUSH32 0xBAB40D9491CC04DA47E7DABDF56F30A426011885E1C17A38CDB02F0AC5330BF8 DUP7 DUP7 PUSH1 0x40 MLOAD PUSH2 0x95C SWAP3 SWAP2 SWAP1 PUSH2 0x1CDE JUMP JUMPDEST PUSH1 0x40 MLOAD DUP1 SWAP2 SUB SWAP1 LOG3 POP POP POP POP POP JUMP JUMPDEST PUSH0 DUP1 SLOAD SWAP1 PUSH2 0x100 EXP SWAP1 DIV PUSH20 0xFFFFFFFFFFFFFFFFFFFFFFFFFFFFFFFFFFFFFFFF AND PUSH20 0xFFFFFFFFFFFFFFFFFFFFFFFFFFFFFFFFFFFFFFFF AND CALLER PUSH20 0xFFFFFFFFFFFFFFFFFFFFFFFFFFFFFFFFFFFFFFFF AND EQ PUSH2 0x9F8 JUMPI PUSH1 0x40 MLOAD PUSH32 0x8C379A000000000000000000000000000000000000000000000000000000000 DUP2 MSTORE PUSH1 0x4 ADD PUSH2 0x9EF SWAP1 PUSH2 0x1D4F JUMP JUMPDEST PUSH1 0x40 MLOAD DUP1 SWAP2 SUB SWAP1 REVERT JUMPDEST PUSH0 PUSH1 0x2 PUSH0 DUP7 DUP2 MSTORE PUSH1 0x20 ADD SWAP1 DUP2 MSTORE PUSH1 0x20 ADD PUSH0 KECCAK256 SWAP1 POP PUSH0 PUSH1 0x1 DUP2 GT ISZERO PUSH2 0xA1F JUMPI PUSH2 0xA1E PUSH2 0x153E JUMP JUMPDEST JUMPDEST DUP2 PUSH1 0x5 ADD PUSH0 SWAP1 SLOAD SWAP1 PUSH2 0x100 EXP SWAP1 DIV PUSH1 0xFF AND PUSH1 0x1 DUP2 GT ISZERO PUSH2 0xA42 JUMPI PUSH2 0xA41 PUSH2 0x153E JUMP JUMPDEST JUMPDEST EQ PUSH2 0xA82 JUMPI PUSH1 0x40 MLOAD PUSH32 0x8C379A000000000000000000000000000000000000000000000000000000000 DUP2 MSTORE PUSH1 0x4 ADD PUSH2 0xA79 SWAP1 PUSH2 0x1DB7 JUMP JUMPDEST PUSH1 0x40 MLOAD DUP1 SWAP2 SUB SWAP1 REVERT JUMPDEST DUP1 PUSH1 0x2 ADD SLOAD TIMESTAMP LT ISZERO PUSH2 0xAC9 JUMPI PUSH1 0x40 MLOAD PUSH32 0x8C379A000000000000000000000000000000000000000000000000000000000 DUP2 MSTORE PUSH1 0x4 ADD PUSH2 0xAC0 SWAP1 PUSH2 0x1E1F JUMP JUMPDEST PUSH1 0x40 MLOAD DUP1 SWAP2 SUB SWAP1 REVERT JUMPDEST DUP4 DUP2 PUSH1 0x6 ADD DUP2 SWAP1 SSTORE POP DUP3 DUP3 DUP3 PUSH1 0x7 ADD SWAP2 DUP3 PUSH2 0xAE5 SWAP3 SWAP2 SWAP1 PUSH2 0x2065 JUMP JUMPDEST POP PUSH1 0x1 DUP2 PUSH1 0x5 ADD PUSH0 PUSH2 0x100 EXP DUP2 SLOAD DUP2 PUSH1 0xFF MUL NOT AND SWAP1 DUP4 PUSH1 0x1 DUP2 GT ISZERO PUSH2 0xB0D JUMPI PUSH2 0xB0C PUSH2 0x153E JUMP JUMPDEST JUMPDEST MUL OR SWAP1 SSTORE POP DUP1 PUSH1 0x1 ADD SLOAD DUP5 LT PUSH2 0xB4F JUMPI PUSH1 0x1 DUP2 PUSH1 0x5 ADD PUSH1 0x1 PUSH2 0x100 EXP DUP2 SLOAD DUP2 PUSH1 0xFF MUL NOT AND SWAP1 DUP4 PUSH1 0x2 DUP2 GT ISZERO PUSH2 0xB45 JUMPI PUSH2 0xB44 PUSH2 0x153E JUMP JUMPDEST JUMPDEST MUL OR SWAP1 SSTORE POP PUSH2 0xB7D JUMP JUMPDEST PUSH1 0x2 DUP2 PUSH1 0x5 ADD PUSH1 0x1 PUSH2 0x100 EXP DUP2 SLOAD DUP2 PUSH1 0xFF MUL NOT AND SWAP1 DUP4 PUSH1 0x2 DUP2 GT ISZERO PUSH2 0xB77 JUMPI PUSH2 0xB76 PUSH2 0x153E JUMP JUMPDEST JUMPDEST MUL OR SWAP1 SSTORE POP JUMPDEST DUP5 PUSH32 0x634E31F9DE664BDEAB539FCD68C5208BBCD03E16C31E4D1192A5F8D67C5BC7D5 DUP3 PUSH1 0x5 ADD PUSH1 0x1 SWAP1 SLOAD SWAP1 PUSH2 0x100 EXP SWAP1 DIV PUSH1 0xFF AND DUP7 DUP7 DUP7 PUSH1 0x40 MLOAD PUSH2 0xBC4 SWAP5 SWAP4 SWAP3 SWAP2 SWAP1 PUSH2 0x216C JUMP JUMPDEST PUSH1 0x40 MLOAD DUP1 SWAP2 SUB SWAP1 LOG2 POP POP POP POP POP JUMP JUMPDEST PUSH0 DUP1 SLOAD SWAP1 PUSH2 0x100 EXP SWAP1 DIV PUSH20 0xFFFFFFFFFFFFFFFFFFFFFFFFFFFFFFFFFFFFFFFF AND DUP2 JUMP JUMPDEST PUSH1 0x3 PUSH1 0x20 MSTORE DUP2 PUSH0 MSTORE PUSH1 0x40 PUSH0 KECCAK256 PUSH1 0x20 MSTORE DUP1 PUSH0 MSTORE PUSH1 0x40 PUSH0 KECCAK256 PUSH0 SWAP2 POP SWAP2 POP POP DUP1 PUSH0 ADD SLOAD SWAP1 DUP1 PUSH1 0x1 ADD PUSH0 SWAP1 SLOAD SWAP1 PUSH2 0x100 EXP SWAP1 DIV PUSH1 0xFF AND SWAP1 DUP1 PUSH1 0x1 ADD PUSH1 0x1 SWAP1 SLOAD SWAP1 PUSH2 0x100 EXP SWAP1 DIV PUSH1 0xFF AND SWAP1 POP DUP4 JUMP JUMPDEST PUSH1 0x2 PUSH1 0x20 MSTORE DUP1 PUSH0 MSTORE PUSH1 0x40 PUSH0 KECCAK256 PUSH0 SWAP2 POP SWAP1 POP DUP1 PUSH0 ADD DUP1 SLOAD PUSH2 0xC5F SWAP1 PUSH2 0x1EA1 JUMP JUMPDEST DUP1 PUSH1 0x1F ADD PUSH1 0x20 DUP1 SWAP2 DIV MUL PUSH1 0x20 ADD PUSH1 0x40 MLOAD SWAP1 DUP2 ADD PUSH1 0x40 MSTORE DUP1 SWAP3 SWAP2 SWAP1 DUP2 DUP2 MSTORE PUSH1 0x20 ADD DUP3 DUP1 SLOAD PUSH2 0xC8B SWAP1 PUSH2 0x1EA1 JUMP JUMPDEST DUP1 ISZERO PUSH2 0xCD6 JUMPI DUP1 PUSH1 0x1F LT PUSH2 0xCAD JUMPI PUSH2 0x100 DUP1 DUP4 SLOAD DIV MUL DUP4 MSTORE SWAP2 PUSH1 0x20 ADD SWAP2 PUSH2 0xCD6 JUMP JUMPDEST DUP3 ADD SWAP2 SWAP1 PUSH0 MSTORE PUSH1 0x20 PUSH0 KECCAK256 SWAP1 JUMPDEST DUP2 SLOAD DUP2 MSTORE SWAP1 PUSH1 0x1 ADD SWAP1 PUSH1 0x20 ADD DUP1 DUP4 GT PUSH2 0xCB9 JUMPI DUP3 SWAP1 SUB PUSH1 0x1F AND DUP3 ADD SWAP2 JUMPDEST POP POP POP POP POP SWAP1 DUP1 PUSH1 0x1 ADD SLOAD SWAP1 DUP1 PUSH1 0x2 ADD SLOAD SWAP1 DUP1 PUSH1 0x3 ADD SLOAD SWAP1 DUP1 PUSH1 0x4 ADD SLOAD SWAP1 DUP1 PUSH1 0x5 ADD PUSH0 SWAP1 SLOAD SWAP1 PUSH2 0x100 EXP SWAP1 DIV PUSH1 0xFF AND SWAP1 DUP1 PUSH1 0x5 ADD PUSH1 0x1 SWAP1 SLOAD SWAP1 PUSH2 0x100 EXP SWAP1 DIV PUSH1 0xFF AND SWAP1 DUP1 PUSH1 0x6 ADD SLOAD SWAP1 DUP1 PUSH1 0x7 ADD DUP1 SLOAD PUSH2 0xD2E SWAP1 PUSH2 0x1EA1 JUMP JUMPDEST DUP1 PUSH1 0x1F ADD PUSH1 0x20 DUP1 SWAP2 DIV MUL PUSH1 0x20 ADD PUSH1 0x40 MLOAD SWAP1 DUP2 ADD PUSH1 0x40 MSTORE DUP1 SWAP3 SWAP2 SWAP1 DUP2 DUP2 MSTORE PUSH1 0x20 ADD DUP3 DUP1 SLOAD PUSH2 0xD5A SWAP1 PUSH2 0x1EA1 JUMP JUMPDEST DUP1 ISZERO PUSH2 0xDA5 JUMPI DUP1 PUSH1 0x1F LT PUSH2 0xD7C JUMPI PUSH2 0x100 DUP1 DUP4 SLOAD DIV MUL DUP4 MSTORE SWAP2 PUSH1 0x20 ADD SWAP2 PUSH2 0xDA5 JUMP JUMPDEST DUP3 ADD SWAP2 SWAP1 PUSH0 MSTORE PUSH1 0x20 PUSH0 KECCAK256 SWAP1 JUMPDEST DUP2 SLOAD DUP2 MSTORE SWAP1 PUSH1 0x1 ADD SWAP1 PUSH1 0x20 ADD DUP1 DUP4 GT PUSH2 0xD88 JUMPI DUP3 SWAP1 SUB PUSH1 0x1F AND DUP3 ADD SWAP2 JUMPDEST POP POP POP POP POP SWAP1 POP DUP10 JUMP JUMPDEST PUSH0 DUP1 PUSH0 SWAP1 SLOAD SWAP1 PUSH2 0x100 EXP SWAP1 DIV PUSH20 0xFFFFFFFFFFFFFFFFFFFFFFFFFFFFFFFFFFFFFFFF AND PUSH20 0xFFFFFFFFFFFFFFFFFFFFFFFFFFFFFFFFFFFFFFFF AND CALLER PUSH20 0xFFFFFFFFFFFFFFFFFFFFFFFFFFFFFFFFFFFFFFFF AND EQ PUSH2 0xE3E JUMPI PUSH1 0x40 MLOAD PUSH32 0x8C379A000000000000000000000000000000000000000000000000000000000 DUP2 MSTORE PUSH1 0x4 ADD PUSH2 0xE35 SWAP1 PUSH2 0x1D4F JUMP JUMPDEST PUSH1 0x40 MLOAD DUP1 SWAP2 SUB SWAP1 REVERT JUMPDEST TIMESTAMP DUP3 GT PUSH2 0xE80 JUMPI PUSH1 0x40 MLOAD PUSH32 0x8C379A000000000000000000000000000000000000000000000000000000000 DUP2 MSTORE PUSH1 0x4 ADD PUSH2 0xE77 SWAP1 PUSH2 0x21F4 JUMP JUMPDEST PUSH1 0x40 MLOAD DUP1 SWAP2 SUB SWAP1 REVERT JUMPDEST PUSH0 PUSH1 0x1 PUSH0 DUP2 SLOAD DUP1 SWAP3 SWAP2 SWAP1 PUSH2 0xE93 SWAP1 PUSH2 0x2212 JUMP JUMPDEST SWAP2 SWAP1 POP SSTORE SWAP1 POP PUSH1 0x40 MLOAD DUP1 PUSH2 0x120 ADD PUSH1 0x40 MSTORE DUP1 DUP8 DUP8 DUP1 DUP1 PUSH1 0x1F ADD PUSH1 0x20 DUP1 SWAP2 DIV MUL PUSH1 0x20 ADD PUSH1 0x40 MLOAD SWAP1 DUP2 ADD PUSH1 0x40 MSTORE DUP1 SWAP4 SWAP3 SWAP2 SWAP1 DUP2 DUP2 MSTORE PUSH1 0x20 ADD DUP4 DUP4 DUP1 DUP3 DUP5 CALLDATACOPY PUSH0 DUP2 DUP5 ADD MSTORE PUSH1 0x1F NOT PUSH1 0x1F DUP3 ADD AND SWAP1 POP DUP1 DUP4 ADD SWAP3 POP POP POP POP POP POP POP DUP2 MSTORE PUSH1 0x20 ADD DUP6 DUP2 MSTORE PUSH1 0x20 ADD DUP5 DUP2 MSTORE PUSH1 0x20 ADD PUSH0 DUP2 MSTORE PUSH1 0x20 ADD PUSH0 DUP2 MSTORE PUSH1 0x20 ADD PUSH0 PUSH1 0x1 DUP2 GT ISZERO PUSH2 0xF19 JUMPI PUSH2 0xF18 PUSH2 0x153E JUMP JUMPDEST JUMPDEST DUP2 MSTORE PUSH1 0x20 ADD PUSH0 PUSH1 0x2 DUP2 GT ISZERO PUSH2 0xF31 JUMPI PUSH2 0xF30 PUSH2 0x153E JUMP JUMPDEST JUMPDEST DUP2 MSTORE PUSH1 0x20 ADD PUSH0 DUP2 MSTORE PUSH1 0x20 ADD PUSH1 0x40 MLOAD DUP1 PUSH1 0x20 ADD PUSH1 0x40 MSTORE DUP1 PUSH0 DUP2 MSTORE POP DUP2 MSTORE POP PUSH1 0x2 PUSH0 DUP4 DUP2 MSTORE PUSH1 0x20 ADD SWAP1 DUP2 MSTORE PUSH1 0x20 ADD PUSH0 KECCAK256 PUSH0 DUP3 ADD MLOAD DUP2 PUSH0 ADD SWAP1 DUP2 PUSH2 0xF72 SWAP2 SWAP1 PUSH2 0x2259 JUMP JUMPDEST POP PUSH1 0x20 DUP3 ADD MLOAD DUP2 PUSH1 0x1 ADD SSTORE PUSH1 0x40 DUP3 ADD MLOAD DUP2 PUSH1 0x2 ADD SSTORE PUSH1 0x60 DUP3 ADD MLOAD DUP2 PUSH1 0x3 ADD SSTORE PUSH1 0x80 DUP3 ADD MLOAD DUP2 PUSH1 0x4 ADD SSTORE PUSH1 0xA0 DUP3 ADD MLOAD DUP2 PUSH1 0x5 ADD PUSH0 PUSH2 0x100 EXP DUP2 SLOAD DUP2 PUSH1 0xFF MUL NOT AND SWAP1 DUP4 PUSH1 0x1 DUP2 GT ISZERO PUSH2 0xFC5 JUMPI PUSH2 0xFC4 PUSH2 0x153E JUMP JUMPDEST JUMPDEST MUL OR SWAP1 SSTORE POP PUSH1 0xC0 DUP3 ADD MLOAD DUP2 PUSH1 0x5 ADD PUSH1 0x1 PUSH2 0x100 EXP DUP2 SLOAD DUP2 PUSH1 0xFF MUL NOT AND SWAP1 DUP4 PUSH1 0x2 DUP2 GT ISZERO PUSH2 0xFF5 JUMPI PUSH2 0xFF4 PUSH2 0x153E JUMP JUMPDEST JUMPDEST MUL OR SWAP1 SSTORE POP PUSH1 0xE0 DUP3 ADD MLOAD DUP2 PUSH1 0x6 ADD SSTORE PUSH2 0x100 DUP3 ADD MLOAD DUP2 PUSH1 0x7 ADD SWAP1 DUP2 PUSH2 0x101A SWAP2 SWAP1 PUSH2 0x2259 JUMP JUMPDEST POP SWAP1 POP POP DUP1 PUSH32 0x208E61CB94F388DE8317E3BF4569BE2A912366B1D5A8DF15CAC962FEA10CEA26 DUP8 DUP8 DUP8 DUP8 PUSH1 0x40 MLOAD PUSH2 0x1054 SWAP5 SWAP4 SWAP3 SWAP2 SWAP1 PUSH2 0x2328 JUMP JUMPDEST PUSH1 0x40 MLOAD DUP1 SWAP2 SUB SWAP1 LOG2 DUP1 SWAP2 POP POP SWAP5 SWAP4 POP POP POP POP JUMP JUMPDEST PUSH1 0x60 PUSH0 DUP1 PUSH0 DUP1 PUSH0 DUP1 PUSH0 DUP1 PUSH1 0x2 PUSH0 DUP12 DUP2 MSTORE PUSH1 0x20 ADD SWAP1 DUP2 MSTORE PUSH1 0x20 ADD PUSH0 KECCAK256 SWAP1 POP DUP1 PUSH0 ADD DUP2 PUSH1 0x1 ADD SLOAD DUP3 PUSH1 0x2 ADD SLOAD DUP4 PUSH1 0x3 ADD SLOAD DUP5 PUSH1 0x4 ADD SLOAD DUP6 PUSH1 0x5 ADD PUSH0 SWAP1 SLOAD SWAP1 PUSH2 0x100 EXP SWAP1 DIV PUSH1 0xFF AND DUP7 PUSH1 0x5 ADD PUSH1 0x1 SWAP1 SLOAD SWAP1 PUSH2 0x100 EXP SWAP1 DIV PUSH1 0xFF AND DUP8 PUSH1 0x6 ADD SLOAD DUP8 DUP1 SLOAD PUSH2 0x10D0 SWAP1 PUSH2 0x1EA1 JUMP JUMPDEST DUP1 PUSH1 0x1F ADD PUSH1 0x20 DUP1 SWAP2 DIV MUL PUSH1 0x20 ADD PUSH1 0x40 MLOAD SWAP1 DUP2 ADD PUSH1 0x40 MSTORE DUP1 SWAP3 SWAP2 SWAP1 DUP2 DUP2 MSTORE PUSH1 0x20 ADD DUP3 DUP1 SLOAD PUSH2 0x10FC SWAP1 PUSH2 0x1EA1 JUMP JUMPDEST DUP1 ISZERO PUSH2 0x1147 JUMPI DUP1 PUSH1 0x1F LT PUSH2 0x111E JUMPI PUSH2 0x100 DUP1 DUP4 SLOAD DIV MUL DUP4 MSTORE SWAP2 PUSH1 0x20 ADD SWAP2 PUSH2 0x1147 JUMP JUMPDEST DUP3 ADD SWAP2 SWAP1 PUSH0 MSTORE PUSH1 0x20 PUSH0 KECCAK256 SWAP1 JUMPDEST DUP2 SLOAD DUP2 MSTORE SWAP1 PUSH1 0x1 ADD SWAP1 PUSH1 0x20 ADD DUP1 DUP4 GT PUSH2 0x112A JUMPI DUP3 SWAP1 SUB PUSH1 0x1F AND DUP3 ADD SWAP2 JUMPDEST POP POP POP POP POP SWAP8 POP SWAP9 POP SWAP9 POP SWAP9 POP SWAP9 POP SWAP9 POP SWAP9 POP SWAP9 POP SWAP9 POP POP SWAP2 SWAP4 SWAP6 SWAP8 POP SWAP2 SWAP4 SWAP6 SWAP8 JUMP JUMPDEST PUSH1 0x1 SLOAD DUP2 JUMP JUMPDEST PUSH0 DUP1 REVERT JUMPDEST PUSH0 DUP1 REVERT JUMPDEST PUSH0 DUP2 SWAP1 POP SWAP2 SWAP1 POP JUMP JUMPDEST PUSH2 0x118A DUP2 PUSH2 0x1178 JUMP JUMPDEST DUP2 EQ PUSH2 0x1194 JUMPI PUSH0 DUP1 REVERT JUMPDEST POP JUMP JUMPDEST PUSH0 DUP2 CALLDATALOAD SWAP1 POP PUSH2 0x11A5 DUP2 PUSH2 0x1181 JUMP JUMPDEST SWAP3 SWAP2 POP POP JUMP JUMPDEST PUSH0 PUSH1 0x20 DUP3 DUP5 SUB SLT ISZERO PUSH2 0x11C0 JUMPI PUSH2 0x11BF PUSH2 0x1170 JUMP JUMPDEST JUMPDEST PUSH0 PUSH2 0x11CD DUP5 DUP3 DUP6 ADD PUSH2 0x1197 JUMP JUMPDEST SWAP2 POP POP SWAP3 SWAP2 POP POP JUMP JUMPDEST PUSH0 PUSH20 0xFFFFFFFFFFFFFFFFFFFFFFFFFFFFFFFFFFFFFFFF DUP3 AND SWAP1 POP SWAP2 SWAP1 POP JUMP JUMPDEST PUSH0 DUP2 SWAP1 POP SWAP2 SWAP1 POP JUMP JUMPDEST PUSH0 PUSH2 0x1218 PUSH2 0x1213 PUSH2 0x120E DUP5 PUSH2 0x11D6 JUMP JUMPDEST PUSH2 0x11F5 JUMP JUMPDEST PUSH2 0x11D6 JUMP JUMPDEST SWAP1 POP SWAP2 SWAP1 POP JUMP JUMPDEST PUSH0 PUSH2 0x1229 DUP3 PUSH2 0x11FE JUMP JUMPDEST SWAP1 POP SWAP2 SWAP1 POP JUMP JUMPDEST PUSH0 PUSH2 0x123A DUP3 PUSH2 0x121F JUMP JUMPDEST SWAP1 POP SWAP2 SWAP1 POP JUMP JUMPDEST PUSH2 0x124A DUP2 PUSH2 0x1230 JUMP JUMPDEST DUP3 MSTORE POP POP JUMP JUMPDEST PUSH0 PUSH1 0x20 DUP3 ADD SWAP1 POP PUSH2 0x1263 PUSH0 DUP4 ADD DUP5 PUSH2 0x1241 JUMP JUMPDEST SWAP3 SWAP2 POP POP JUMP JUMPDEST PUSH0 DUP2 ISZERO ISZERO SWAP1 POP SWAP2 SWAP1 POP JUMP JUMPDEST PUSH2 0x127D DUP2 PUSH2 0x1269 JUMP JUMPDEST DUP2 EQ PUSH2 0x1287 JUMPI PUSH0 DUP1 REVERT JUMPDEST POP JUMP JUMPDEST PUSH0 DUP2 CALLDATALOAD SWAP1 POP PUSH2 0x1298 DUP2 PUSH2 0x1274 JUMP JUMPDEST SWAP3 SWAP2 POP POP JUMP JUMPDEST PUSH0 DUP1 PUSH0 PUSH1 0x60 DUP5 DUP7 SUB SLT ISZERO PUSH2 0x12B5 JUMPI PUSH2 0x12B4 PUSH2 0x1170 JUMP JUMPDEST JUMPDEST PUSH0 PUSH2 0x12C2 DUP7 DUP3 DUP8 ADD PUSH2 0x1197 JUMP JUMPDEST SWAP4 POP POP PUSH1 0x20 PUSH2 0x12D3 DUP7 DUP3 DUP8 ADD PUSH2 0x1197 JUMP JUMPDEST SWAP3 POP POP PUSH1 0x40 PUSH2 0x12E4 DUP7 DUP3 DUP8 ADD PUSH2 0x128A JUMP JUMPDEST SWAP2 POP POP SWAP3 POP SWAP3 POP SWAP3 JUMP JUMPDEST PUSH0 DUP1 REVERT JUMPDEST PUSH0 DUP1 REVERT JUMPDEST PUSH0 DUP1 REVERT JUMPDEST PUSH0 DUP1 DUP4 PUSH1 0x1F DUP5 ADD SLT PUSH2 0x130F JUMPI PUSH2 0x130E PUSH2 0x12EE JUMP JUMPDEST JUMPDEST DUP3 CALLDATALOAD SWAP1 POP PUSH8 0xFFFFFFFFFFFFFFFF DUP2 GT ISZERO PUSH2 0x132C JUMPI PUSH2 0x132B PUSH2 0x12F2 JUMP JUMPDEST JUMPDEST PUSH1 0x20 DUP4 ADD SWAP2 POP DUP4 PUSH1 0x1 DUP3 MUL DUP4 ADD GT ISZERO PUSH2 0x1348 JUMPI PUSH2 0x1347 PUSH2 0x12F6 JUMP JUMPDEST JUMPDEST SWAP3 POP SWAP3 SWAP1 POP JUMP JUMPDEST PUSH0 DUP1 PUSH0 DUP1 PUSH1 0x60 DUP6 DUP8 SUB SLT ISZERO PUSH2 0x1367 JUMPI PUSH2 0x1366 PUSH2 0x1170 JUMP JUMPDEST JUMPDEST PUSH0 PUSH2 0x1374 DUP8 DUP3 DUP9 ADD PUSH2 0x1197 JUMP JUMPDEST SWAP5 POP POP PUSH1 0x20 PUSH2 0x1385 DUP8 DUP3 DUP9 ADD PUSH2 0x1197 JUMP JUMPDEST SWAP4 POP POP PUSH1 0x40 DUP6 ADD CALLDATALOAD PUSH8 0xFFFFFFFFFFFFFFFF DUP2 GT ISZERO PUSH2 0x13A6 JUMPI PUSH2 0x13A5 PUSH2 0x1174 JUMP JUMPDEST JUMPDEST PUSH2 0x13B2 DUP8 DUP3 DUP9 ADD PUSH2 0x12FA JUMP JUMPDEST SWAP3 POP SWAP3 POP POP SWAP3 SWAP6 SWAP2 SWAP5 POP SWAP3 POP JUMP JUMPDEST PUSH0 PUSH2 0x13CA DUP3 PUSH2 0x11D6 JUMP JUMPDEST SWAP1 POP SWAP2 SWAP1 POP JUMP JUMPDEST PUSH2 0x13DA DUP2 PUSH2 0x13C0 JUMP JUMPDEST DUP3 MSTORE POP POP JUMP JUMPDEST PUSH0 PUSH1 0x20 DUP3 ADD SWAP1 POP PUSH2 0x13F3 PUSH0 DUP4 ADD DUP5 PUSH2 0x13D1 JUMP JUMPDEST SWAP3 SWAP2 POP POP JUMP JUMPDEST PUSH2 0x1402 DUP2 PUSH2 0x13C0 JUMP JUMPDEST DUP2 EQ PUSH2 0x140C JUMPI PUSH0 DUP1 REVERT JUMPDEST POP JUMP JUMPDEST PUSH0 DUP2 CALLDATALOAD SWAP1 POP PUSH2 0x141D DUP2 PUSH2 0x13F9 JUMP JUMPDEST SWAP3 SWAP2 POP POP JUMP JUMPDEST PUSH0 DUP1 PUSH1 0x40 DUP4 DUP6 SUB SLT ISZERO PUSH2 0x1439 JUMPI PUSH2 0x1438 PUSH2 0x1170 JUMP JUMPDEST JUMPDEST PUSH0 PUSH2 0x1446 DUP6 DUP3 DUP7 ADD PUSH2 0x1197 JUMP JUMPDEST SWAP3 POP POP PUSH1 0x20 PUSH2 0x1457 DUP6 DUP3 DUP7 ADD PUSH2 0x140F JUMP JUMPDEST SWAP2 POP POP SWAP3 POP SWAP3 SWAP1 POP JUMP JUMPDEST PUSH2 0x146A DUP2 PUSH2 0x1178 JUMP JUMPDEST DUP3 MSTORE POP POP JUMP JUMPDEST PUSH2 0x1479 DUP2 PUSH2 0x1269 JUMP JUMPDEST DUP3 MSTORE POP POP JUMP JUMPDEST PUSH0 PUSH1 0x60 DUP3 ADD SWAP1 POP PUSH2 0x1492 PUSH0 DUP4 ADD DUP7 PUSH2 0x1461 JUMP JUMPDEST PUSH2 0x149F PUSH1 0x20 DUP4 ADD DUP6 PUSH2 0x1470 JUMP JUMPDEST PUSH2 0x14AC PUSH1 0x40 DUP4 ADD DUP5 PUSH2 0x1470 JUMP JUMPDEST SWAP5 SWAP4 POP POP POP POP JUMP JUMPDEST PUSH0 DUP2 MLOAD SWAP1 POP SWAP2 SWAP1 POP JUMP JUMPDEST PUSH0 DUP3 DUP3 MSTORE PUSH1 0x20 DUP3 ADD SWAP1 POP SWAP3 SWAP2 POP POP JUMP JUMPDEST PUSH0 JUMPDEST DUP4 DUP2 LT ISZERO PUSH2 0x14EB JUMPI DUP1 DUP3 ADD MLOAD DUP2 DUP5 ADD MSTORE PUSH1 0x20 DUP2 ADD SWAP1 POP PUSH2 0x14D0 JUMP JUMPDEST PUSH0 DUP5 DUP5 ADD MSTORE POP POP POP POP JUMP JUMPDEST PUSH0 PUSH1 0x1F NOT PUSH1 0x1F DUP4 ADD AND SWAP1 POP SWAP2 SWAP1 POP JUMP JUMPDEST PUSH0 PUSH2 0x1510 DUP3 PUSH2 0x14B4 JUMP JUMPDEST PUSH2 0x151A DUP2 DUP6 PUSH2 0x14BE JUMP JUMPDEST SWAP4 POP PUSH2 0x152A DUP2 DUP6 PUSH1 0x20 DUP7 ADD PUSH2 0x14CE JUMP JUMPDEST PUSH2 0x1533 DUP2 PUSH2 0x14F6 JUMP JUMPDEST DUP5 ADD SWAP2 POP POP SWAP3 SWAP2 POP POP JUMP JUMPDEST PUSH32 0x4E487B7100000000000000000000000000000000000000000000000000000000 PUSH0 MSTORE PUSH1 0x21 PUSH1 0x4 MSTORE PUSH1 0x24 PUSH0 REVERT JUMPDEST PUSH1 0x2 DUP2 LT PUSH2 0x157C JUMPI PUSH2 0x157B PUSH2 0x153E JUMP JUMPDEST JUMPDEST POP JUMP JUMPDEST PUSH0 DUP2 SWAP1 POP PUSH2 0x158C DUP3 PUSH2 0x156B JUMP JUMPDEST SWAP2 SWAP1 POP JUMP JUMPDEST PUSH0 PUSH2 0x159B DUP3 PUSH2 0x157F JUMP JUMPDEST SWAP1 POP SWAP2 SWAP1 POP JUMP JUMPDEST PUSH2 0x15AB DUP2 PUSH2 0x1591 JUMP JUMPDEST DUP3 MSTORE POP POP JUMP JUMPDEST PUSH1 0x3 DUP2 LT PUSH2 0x15C2 JUMPI PUSH2 0x15C1 PUSH2 0x153E JUMP JUMPDEST JUMPDEST POP JUMP JUMPDEST PUSH0 DUP2 SWAP1 POP PUSH2 0x15D2 DUP3 PUSH2 0x15B1 JUMP JUMPDEST SWAP2 SWAP1 POP JUMP JUMPDEST PUSH0 PUSH2 0x15E1 DUP3 PUSH2 0x15C5 JUMP JUMPDEST SWAP1 POP SWAP2 SWAP1 POP JUMP JUMPDEST PUSH2 0x15F1 DUP2 PUSH2 0x15D7 JUMP JUMPDEST DUP3 MSTORE POP POP JUMP JUMPDEST PUSH0 PUSH2 0x120 DUP3 ADD SWAP1 POP DUP2 DUP2 SUB PUSH0 DUP4 ADD MSTORE PUSH2 0x1610 DUP2 DUP13 PUSH2 0x1506 JUMP JUMPDEST SWAP1 POP PUSH2 0x161F PUSH1 0x20 DUP4 ADD DUP12 PUSH2 0x1461 JUMP JUMPDEST PUSH2 0x162C PUSH1 0x40 DUP4 ADD DUP11 PUSH2 0x1461 JUMP JUMPDEST PUSH2 0x1639 PUSH1 0x60 DUP4 ADD DUP10 PUSH2 0x1461 JUMP JUMPDEST PUSH2 0x1646 PUSH1 0x80 DUP4 ADD DUP9 PUSH2 0x1461 JUMP JUMPDEST PUSH2 0x1653 PUSH1 0xA0 DUP4 ADD DUP8 PUSH2 0x15A2 JUMP JUMPDEST PUSH2 0x1660 PUSH1 0xC0 DUP4 ADD DUP7 PUSH2 0x15E8 JUMP JUMPDEST PUSH2 0x166D PUSH1 0xE0 DUP4 ADD DUP6 PUSH2 0x1461 JUMP JUMPDEST DUP2 DUP2 SUB PUSH2 0x100 DUP4 ADD MSTORE PUSH2 0x1680 DUP2 DUP5 PUSH2 0x1506 JUMP JUMPDEST SWAP1 POP SWAP11 SWAP10 POP POP POP POP POP POP POP POP POP POP JUMP JUMPDEST PUSH0 DUP1 PUSH0 DUP1 PUSH1 0x60 DUP6 DUP8 SUB SLT ISZERO PUSH2 0x16A8 JUMPI PUSH2 0x16A7 PUSH2 0x1170 JUMP JUMPDEST JUMPDEST PUSH0 DUP6 ADD CALLDATALOAD PUSH8 0xFFFFFFFFFFFFFFFF DUP2 GT ISZERO PUSH2 0x16C5 JUMPI PUSH2 0x16C4 PUSH2 0x1174 JUMP JUMPDEST JUMPDEST PUSH2 0x16D1 DUP8 DUP3 DUP9 ADD PUSH2 0x12FA JUMP JUMPDEST SWAP5 POP SWAP5 POP POP PUSH1 0x20 PUSH2 0x16E4 DUP8 DUP3 DUP9 ADD PUSH2 0x1197 JUMP JUMPDEST SWAP3 POP POP PUSH1 0x40 PUSH2 0x16F5 DUP8 DUP3 DUP9 ADD PUSH2 0x1197 JUMP JUMPDEST SWAP2 POP POP SWAP3 SWAP6 SWAP2 SWAP5 POP SWAP3 POP JUMP JUMPDEST PUSH0 PUSH1 0x20 DUP3 ADD SWAP1 POP PUSH2 0x1714 PUSH0 DUP4 ADD DUP5 PUSH2 0x1461 JUMP JUMPDEST SWAP3 SWAP2 POP POP JUMP JUMPDEST PUSH0 PUSH2 0x100 DUP3 ADD SWAP1 POP DUP2 DUP2 SUB PUSH0 DUP4 ADD MSTORE PUSH2 0x1733 DUP2 DUP12 PUSH2 0x1506 JUMP JUMPDEST SWAP1 POP PUSH2 0x1742 PUSH1 0x20 DUP4 ADD DUP11 PUSH2 0x1461 JUMP JUMPDEST PUSH2 0x174F PUSH1 0x40 DUP4 ADD DUP10 PUSH2 0x1461 JUMP JUMPDEST PUSH2 0x175C PUSH1 0x60 DUP4 ADD DUP9 PUSH2 0x1461 JUMP JUMPDEST PUSH2 0x1769 PUSH1 0x80 DUP4 ADD DUP8 PUSH2 0x1461 JUMP JUMPDEST PUSH2 0x1776 PUSH1 0xA0 DUP4 ADD DUP7 PUSH2 0x15A2 JUMP JUMPDEST PUSH2 0x1783 PUSH1 0xC0 DUP4 ADD DUP6 PUSH2 0x15E8 JUMP JUMPDEST PUSH2 0x1790 PUSH1 0xE0 DUP4 ADD DUP5 PUSH2 0x1461 JUMP JUMPDEST SWAP10 SWAP9 POP POP POP POP POP POP POP POP POP JUMP JUMPDEST PUSH32 0x4E6F74207265736F6C7665640000000000000000000000000000000000000000 PUSH0 DUP3 ADD MSTORE POP JUMP JUMPDEST PUSH0 PUSH2 0x17D1 PUSH1 0xC DUP4 PUSH2 0x14BE JUMP JUMPDEST SWAP2 POP PUSH2 0x17DC DUP3 PUSH2 0x179D JUMP JUMPDEST PUSH1 0x20 DUP3 ADD SWAP1 POP SWAP2 SWAP1 POP JUMP JUMPDEST PUSH0 PUSH1 0x20 DUP3 ADD SWAP1 POP DUP2 DUP2 SUB PUSH0 DUP4 ADD MSTORE PUSH2 0x17FE DUP2 PUSH2 0x17C5 JUMP JUMPDEST SWAP1 POP SWAP2 SWAP1 POP JUMP JUMPDEST PUSH32 0x4E6F207374616B65000000000000000000000000000000000000000000000000 PUSH0 DUP3 ADD MSTORE POP JUMP JUMPDEST PUSH0 PUSH2 0x1839 PUSH1 0x8 DUP4 PUSH2 0x14BE JUMP JUMPDEST SWAP2 POP PUSH2 0x1844 DUP3 PUSH2 0x1805 JUMP JUMPDEST PUSH1 0x20 DUP3 ADD SWAP1 POP SWAP2 SWAP1 POP JUMP JUMPDEST PUSH0 PUSH1 0x20 DUP3 ADD SWAP1 POP DUP2 DUP2 SUB PUSH0 DUP4 ADD MSTORE PUSH2 0x1866 DUP2 PUSH2 0x182D JUMP JUMPDEST SWAP1 POP SWAP2 SWAP1 POP JUMP JUMPDEST PUSH32 0x416C726561647920636C61696D65640000000000000000000000000000000000 PUSH0 DUP3 ADD MSTORE POP JUMP JUMPDEST PUSH0 PUSH2 0x18A1 PUSH1 0xF DUP4 PUSH2 0x14BE JUMP JUMPDEST SWAP2 POP PUSH2 0x18AC DUP3 PUSH2 0x186D JUMP JUMPDEST PUSH1 0x20 DUP3 ADD SWAP1 POP SWAP2 SWAP1 POP JUMP JUMPDEST PUSH0 PUSH1 0x20 DUP3 ADD SWAP1 POP DUP2 DUP2 SUB PUSH0 DUP4 ADD MSTORE PUSH2 0x18CE DUP2 PUSH2 0x1895 JUMP JUMPDEST SWAP1 POP SWAP2 SWAP1 POP JUMP JUMPDEST PUSH32 0x4E487B7100000000000000000000000000000000000000000000000000000000 PUSH0 MSTORE PUSH1 0x11 PUSH1 0x4 MSTORE PUSH1 0x24 PUSH0 REVERT JUMPDEST PUSH0 PUSH2 0x190C DUP3 PUSH2 0x1178 JUMP JUMPDEST SWAP2 POP PUSH2 0x1917 DUP4 PUSH2 0x1178 JUMP JUMPDEST SWAP3 POP DUP3 DUP3 ADD SWAP1 POP DUP1 DUP3 GT ISZERO PUSH2 0x192F JUMPI PUSH2 0x192E PUSH2 0x18D5 JUMP JUMPDEST JUMPDEST SWAP3 SWAP2 POP POP JUMP JUMPDEST PUSH0 PUSH2 0x193F DUP3 PUSH2 0x1178 JUMP JUMPDEST SWAP2 POP PUSH2 0x194A DUP4 PUSH2 0x1178 JUMP JUMPDEST SWAP3 POP DUP3 DUP3 MUL PUSH2 0x1958 DUP2 PUSH2 0x1178 JUMP JUMPDEST SWAP2 POP DUP3 DUP3 DIV DUP5 EQ DUP4 ISZERO OR PUSH2 0x196F JUMPI PUSH2 0x196E PUSH2 0x18D5 JUMP JUMPDEST JUMPDEST POP SWAP3 SWAP2 POP POP JUMP JUMPDEST PUSH32 0x4E487B7100000000000000000000000000000000000000000000000000000000 PUSH0 MSTORE PUSH1 0x12 PUSH1 0x4 MSTORE PUSH1 0x24 PUSH0 REVERT JUMPDEST PUSH0 PUSH2 0x19AD DUP3 PUSH2 0x1178 JUMP JUMPDEST SWAP2 POP PUSH2 0x19B8 DUP4 PUSH2 0x1178 JUMP JUMPDEST SWAP3 POP DUP3 PUSH2 0x19C8 JUMPI PUSH2 0x19C7 PUSH2 0x1976 JUMP JUMPDEST JUMPDEST DUP3 DUP3 DIV SWAP1 POP SWAP3 SWAP2 POP POP JUMP JUMPDEST PUSH0 PUSH1 0x40 DUP3 ADD SWAP1 POP PUSH2 0x19E6 PUSH0 DUP4 ADD DUP6 PUSH2 0x13D1 JUMP JUMPDEST PUSH2 0x19F3 PUSH1 0x20 DUP4 ADD DUP5 PUSH2 0x1461 JUMP JUMPDEST SWAP4 SWAP3 POP POP POP JUMP JUMPDEST PUSH0 DUP2 MLOAD SWAP1 POP PUSH2 0x1A08 DUP2 PUSH2 0x1274 JUMP JUMPDEST SWAP3 SWAP2 POP POP JUMP JUMPDEST PUSH0 PUSH1 0x20 DUP3 DUP5 SUB SLT ISZERO PUSH2 0x1A23 JUMPI PUSH2 0x1A22 PUSH2 0x1170 JUMP JUMPDEST JUMPDEST PUSH0 PUSH2 0x1A30 DUP5 DUP3 DUP6 ADD PUSH2 0x19FA JUMP JUMPDEST SWAP2 POP POP SWAP3 SWAP2 POP POP JUMP JUMPDEST PUSH32 0x5061796F7574206661696C656400000000000000000000000000000000000000 PUSH0 DUP3 ADD MSTORE POP JUMP JUMPDEST PUSH0 PUSH2 0x1A6D PUSH1 0xD DUP4 PUSH2 0x14BE JUMP JUMPDEST SWAP2 POP PUSH2 0x1A78 DUP3 PUSH2 0x1A39 JUMP JUMPDEST PUSH1 0x20 DUP3 ADD SWAP1 POP SWAP2 SWAP1 POP JUMP JUMPDEST PUSH0 PUSH1 0x20 DUP3 ADD SWAP1 POP DUP2 DUP2 SUB PUSH0 DUP4 ADD MSTORE PUSH2 0x1A9A DUP2 PUSH2 0x1A61 JUMP JUMPDEST SWAP1 POP SWAP2 SWAP1 POP JUMP JUMPDEST PUSH32 0x4D61726B6574206E6F7420616374697665000000000000000000000000000000 PUSH0 DUP3 ADD MSTORE POP JUMP JUMPDEST PUSH0 PUSH2 0x1AD5 PUSH1 0x11 DUP4 PUSH2 0x14BE JUMP JUMPDEST SWAP2 POP PUSH2 0x1AE0 DUP3 PUSH2 0x1AA1 JUMP JUMPDEST PUSH1 0x20 DUP3 ADD SWAP1 POP SWAP2 SWAP1 POP JUMP JUMPDEST PUSH0 PUSH1 0x20 DUP3 ADD SWAP1 POP DUP2 DUP2 SUB PUSH0 DUP4 ADD MSTORE PUSH2 0x1B02 DUP2 PUSH2 0x1AC9 JUMP JUMPDEST SWAP1 POP SWAP2 SWAP1 POP JUMP JUMPDEST PUSH32 0x42657474696E6720636C6F736564000000000000000000000000000000000000 PUSH0 DUP3 ADD MSTORE POP JUMP JUMPDEST PUSH0 PUSH2 0x1B3D PUSH1 0xE DUP4 PUSH2 0x14BE JUMP JUMPDEST SWAP2 POP PUSH2 0x1B48 DUP3 PUSH2 0x1B09 JUMP JUMPDEST PUSH1 0x20 DUP3 ADD SWAP1 POP SWAP2 SWAP1 POP JUMP JUMPDEST PUSH0 PUSH1 0x20 DUP3 ADD SWAP1 POP DUP2 DUP2 SUB PUSH0 DUP4 ADD MSTORE PUSH2 0x1B6A DUP2 PUSH2 0x1B31 JUMP JUMPDEST SWAP1 POP SWAP2 SWAP1 POP JUMP JUMPDEST PUSH32 0x4D757374207374616B65203E2030000000000000000000000000000000000000 PUSH0 DUP3 ADD MSTORE POP JUMP JUMPDEST PUSH0 PUSH2 0x1BA5 PUSH1 0xE DUP4 PUSH2 0x14BE JUMP JUMPDEST SWAP2 POP PUSH2 0x1BB0 DUP3 PUSH2 0x1B71 JUMP JUMPDEST PUSH1 0x20 DUP3 ADD SWAP1 POP SWAP2 SWAP1 POP JUMP JUMPDEST PUSH0 PUSH1 0x20 DUP3 ADD SWAP1 POP DUP2 DUP2 SUB PUSH0 DUP4 ADD MSTORE PUSH2 0x1BD2 DUP2 PUSH2 0x1B99 JUMP JUMPDEST SWAP1 POP SWAP2 SWAP1 POP JUMP JUMPDEST PUSH0 PUSH1 0x60 DUP3 ADD SWAP1 POP PUSH2 0x1BEC PUSH0 DUP4 ADD DUP7 PUSH2 0x13D1 JUMP JUMPDEST PUSH2 0x1BF9 PUSH1 0x20 DUP4 ADD DUP6 PUSH2 0x13D1 JUMP JUMPDEST PUSH2 0x1C06 PUSH1 0x40 DUP4 ADD DUP5 PUSH2 0x1461 JUMP JUMPDEST SWAP5 SWAP4 POP POP POP POP JUMP JUMPDEST PUSH32 0x5472616E73666572206661696C65640000000000000000000000000000000000 PUSH0 DUP3 ADD MSTORE POP JUMP JUMPDEST PUSH0 PUSH2 0x1C42 PUSH1 0xF DUP4 PUSH2 0x14BE JUMP JUMPDEST SWAP2 POP PUSH2 0x1C4D DUP3 PUSH2 0x1C0E JUMP JUMPDEST PUSH1 0x20 DUP3 ADD SWAP1 POP SWAP2 SWAP1 POP JUMP JUMPDEST PUSH0 PUSH1 0x20 DUP3 ADD SWAP1 POP DUP2 DUP2 SUB PUSH0 DUP4 ADD MSTORE PUSH2 0x1C6F DUP2 PUSH2 0x1C36 JUMP JUMPDEST SWAP1 POP SWAP2 SWAP1 POP JUMP JUMPDEST PUSH32 0x416C7265616479207374616B6564000000000000000000000000000000000000 PUSH0 DUP3 ADD MSTORE POP JUMP JUMPDEST PUSH0 PUSH2 0x1CAA PUSH1 0xE DUP4 PUSH2 0x14BE JUMP JUMPDEST SWAP2 POP PUSH2 0x1CB5 DUP3 PUSH2 0x1C76 JUMP JUMPDEST PUSH1 0x20 DUP3 ADD SWAP1 POP SWAP2 SWAP1 POP JUMP JUMPDEST PUSH0 PUSH1 0x20 DUP3 ADD SWAP1 POP DUP2 DUP2 SUB PUSH0 DUP4 ADD MSTORE PUSH2 0x1CD7 DUP2 PUSH2 0x1C9E JUMP JUMPDEST SWAP1 POP SWAP2 SWAP1 POP JUMP JUMPDEST PUSH0 PUSH1 0x40 DUP3 ADD SWAP1 POP PUSH2 0x1CF1 PUSH0 DUP4 ADD DUP6 PUSH2 0x1461 JUMP JUMPDEST PUSH2 0x1CFE PUSH1 0x20 DUP4 ADD DUP5 PUSH2 0x1470 JUMP JUMPDEST SWAP4 SWAP3 POP POP POP JUMP JUMPDEST PUSH32 0x4F6E6C79206F776E657200000000000000000000000000000000000000000000 PUSH0 DUP3 ADD MSTORE POP JUMP JUMPDEST PUSH0 PUSH2 0x1D39 PUSH1 0xA DUP4 PUSH2 0x14BE JUMP JUMPDEST SWAP2 POP PUSH2 0x1D44 DUP3 PUSH2 0x1D05 JUMP JUMPDEST PUSH1 0x20 DUP3 ADD SWAP1 POP SWAP2 SWAP1 POP JUMP JUMPDEST PUSH0 PUSH1 0x20 DUP3 ADD SWAP1 POP DUP2 DUP2 SUB PUSH0 DUP4 ADD MSTORE PUSH2 0x1D66 DUP2 PUSH2 0x1D2D JUMP JUMPDEST SWAP1 POP SWAP2 SWAP1 POP JUMP JUMPDEST PUSH32 0x416C7265616479207265736F6C76656400000000000000000000000000000000 PUSH0 DUP3 ADD MSTORE POP JUMP JUMPDEST PUSH0 PUSH2 0x1DA1 PUSH1 0x10 DUP4 PUSH2 0x14BE JUMP JUMPDEST SWAP2 POP PUSH2 0x1DAC DUP3 PUSH2 0x1D6D JUMP JUMPDEST PUSH1 0x20 DUP3 ADD SWAP1 POP SWAP2 SWAP1 POP JUMP JUMPDEST PUSH0 PUSH1 0x20 DUP3 ADD SWAP1 POP DUP2 DUP2 SUB PUSH0 DUP4 ADD MSTORE PUSH2 0x1DCE DUP2 PUSH2 0x1D95 JUMP JUMPDEST SWAP1 POP SWAP2 SWAP1 POP JUMP JUMPDEST PUSH32 0x446561646C696E65206E6F742072656163686564000000000000000000000000 PUSH0 DUP3 ADD MSTORE POP JUMP JUMPDEST PUSH0 PUSH2 0x1E09 PUSH1 0x14 DUP4 PUSH2 0x14BE JUMP JUMPDEST SWAP2 POP PUSH2 0x1E14 DUP3 PUSH2 0x1DD5 JUMP JUMPDEST PUSH1 0x20 DUP3 ADD SWAP1 POP SWAP2 SWAP1 POP JUMP JUMPDEST PUSH0 PUSH1 0x20 DUP3 ADD SWAP1 POP DUP2 DUP2 SUB PUSH0 DUP4 ADD MSTORE PUSH2 0x1E36 DUP2 PUSH2 0x1DFD JUMP JUMPDEST SWAP1 POP SWAP2 SWAP1 POP JUMP JUMPDEST PUSH0 DUP3 SWAP1 POP SWAP3 SWAP2 POP POP JUMP JUMPDEST PUSH32 0x4E487B7100000000000000000000000000000000000000000000000000000000 PUSH0 MSTORE PUSH1 0x41 PUSH1 0x4 MSTORE PUSH1 0x24 PUSH0 REVERT JUMPDEST PUSH32 0x4E487B7100000000000000000000000000000000000000000000000000000000 PUSH0 MSTORE PUSH1 0x22 PUSH1 0x4 MSTORE PUSH1 0x24 PUSH0 REVERT JUMPDEST PUSH0 PUSH1 0x2 DUP3 DIV SWAP1 POP PUSH1 0x1 DUP3 AND DUP1 PUSH2 0x1EB8 JUMPI PUSH1 0x7F DUP3 AND SWAP2 POP JUMPDEST PUSH1 0x20 DUP3 LT DUP2 SUB PUSH2 0x1ECB JUMPI PUSH2 0x1ECA PUSH2 0x1E74 JUMP JUMPDEST JUMPDEST POP SWAP2 SWAP1 POP JUMP JUMPDEST PUSH0 DUP2 SWAP1 POP DUP2 PUSH0 MSTORE PUSH1 0x20 PUSH0 KECCAK256 SWAP1 POP SWAP2 SWAP1 POP JUMP JUMPDEST PUSH0 PUSH1 0x20 PUSH1 0x1F DUP4 ADD DIV SWAP1 POP SWAP2 SWAP1 POP JUMP JUMPDEST PUSH0 DUP3 DUP3 SHL SWAP1 POP SWAP3 SWAP2 POP POP JUMP JUMPDEST PUSH0 PUSH1 0x8 DUP4 MUL PUSH2 0x1F2D PUSH32 0xFFFFFFFFFFFFFFFFFFFFFFFFFFFFFFFFFFFFFFFFFFFFFFFFFFFFFFFFFFFFFFFF DUP3 PUSH2 0x1EF2 JUMP JUMPDEST PUSH2 0x1F37 DUP7 DUP4 PUSH2 0x1EF2 JUMP JUMPDEST SWAP6 POP DUP1 NOT DUP5 AND SWAP4 POP DUP1 DUP7 AND DUP5 OR SWAP3 POP POP POP SWAP4 SWAP3 POP POP POP JUMP JUMPDEST PUSH0 PUSH2 0x1F69 PUSH2 0x1F64 PUSH2 0x1F5F DUP5 PUSH2 0x1178 JUMP JUMPDEST PUSH2 0x11F5 JUMP JUMPDEST PUSH2 0x1178 JUMP JUMPDEST SWAP1 POP SWAP2 SWAP1 POP JUMP JUMPDEST PUSH0 DUP2 SWAP1 POP SWAP2 SWAP1 POP JUMP JUMPDEST PUSH2 0x1F82 DUP4 PUSH2 0x1F4F JUMP JUMPDEST PUSH2 0x1F96 PUSH2 0x1F8E DUP3 PUSH2 0x1F70 JUMP JUMPDEST DUP5 DUP5 SLOAD PUSH2 0x1EFE JUMP JUMPDEST DUP3 SSTORE POP POP POP POP JUMP JUMPDEST PUSH0 SWAP1 JUMP JUMPDEST PUSH2 0x1FAA PUSH2 0x1F9E JUMP JUMPDEST PUSH2 0x1FB5 DUP2 DUP5 DUP5 PUSH2 0x1F79 JUMP JUMPDEST POP POP POP JUMP JUMPDEST JUMPDEST DUP2 DUP2 LT ISZERO PUSH2 0x1FD8 JUMPI PUSH2 0x1FCD PUSH0 DUP3 PUSH2 0x1FA2 JUMP JUMPDEST PUSH1 0x1 DUP2 ADD SWAP1 POP PUSH2 0x1FBB JUMP JUMPDEST POP POP JUMP JUMPDEST PUSH1 0x1F DUP3 GT ISZERO PUSH2 0x201D JUMPI PUSH2 0x1FEE DUP2 PUSH2 0x1ED1 JUMP JUMPDEST PUSH2 0x1FF7 DUP5 PUSH2 0x1EE3 JUMP JUMPDEST DUP2 ADD PUSH1 0x20 DUP6 LT ISZERO PUSH2 0x2006 JUMPI DUP2 SWAP1 POP JUMPDEST PUSH2 0x201A PUSH2 0x2012 DUP6 PUSH2 0x1EE3 JUMP JUMPDEST DUP4 ADD DUP3 PUSH2 0x1FBA JUMP JUMPDEST POP POP JUMPDEST POP POP POP JUMP JUMPDEST PUSH0 DUP3 DUP3 SHR SWAP1 POP SWAP3 SWAP2 POP POP JUMP JUMPDEST PUSH0 PUSH2 0x203D PUSH0 NOT DUP5 PUSH1 0x8 MUL PUSH2 0x2022 JUMP JUMPDEST NOT DUP1 DUP4 AND SWAP2 POP POP SWAP3 SWAP2 POP POP JUMP JUMPDEST PUSH0 PUSH2 0x2055 DUP4 DUP4 PUSH2 0x202E JUMP JUMPDEST SWAP2 POP DUP3 PUSH1 0x2 MUL DUP3 OR SWAP1 POP SWAP3 SWAP2 POP POP JUMP JUMPDEST PUSH2 0x206F DUP4 DUP4 PUSH2 0x1E3D JUMP JUMPDEST PUSH8 0xFFFFFFFFFFFFFFFF DUP2 GT ISZERO PUSH2 0x2088 JUMPI PUSH2 0x2087 PUSH2 0x1E47 JUMP JUMPDEST JUMPDEST PUSH2 0x2092 DUP3 SLOAD PUSH2 0x1EA1 JUMP JUMPDEST PUSH2 0x209D DUP3 DUP3 DUP6 PUSH2 0x1FDC JUMP JUMPDEST PUSH0 PUSH1 0x1F DUP4 GT PUSH1 0x1 DUP2 EQ PUSH2 0x20CA JUMPI PUSH0 DUP5 ISZERO PUSH2 0x20B8 JUMPI DUP3 DUP8 ADD CALLDATALOAD SWAP1 POP JUMPDEST PUSH2 0x20C2 DUP6 DUP3 PUSH2 0x204A JUMP JUMPDEST DUP7 SSTORE POP PUSH2 0x2129 JUMP JUMPDEST PUSH1 0x1F NOT DUP5 AND PUSH2 0x20D8 DUP7 PUSH2 0x1ED1 JUMP JUMPDEST PUSH0 JUMPDEST DUP3 DUP2 LT ISZERO PUSH2 0x20FF JUMPI DUP5 DUP10 ADD CALLDATALOAD DUP3 SSTORE PUSH1 0x1 DUP3 ADD SWAP2 POP PUSH1 0x20 DUP6 ADD SWAP5 POP PUSH1 0x20 DUP2 ADD SWAP1 POP PUSH2 0x20DA JUMP JUMPDEST DUP7 DUP4 LT ISZERO PUSH2 0x211C JUMPI DUP5 DUP10 ADD CALLDATALOAD PUSH2 0x2118 PUSH1 0x1F DUP10 AND DUP3 PUSH2 0x202E JUMP JUMPDEST DUP4 SSTORE POP JUMPDEST PUSH1 0x1 PUSH1 0x2 DUP9 MUL ADD DUP9 SSTORE POP POP POP JUMPDEST POP POP POP POP POP POP POP JUMP JUMPDEST DUP3 DUP2 DUP4 CALLDATACOPY PUSH0 DUP4 DUP4 ADD MSTORE POP POP POP JUMP JUMPDEST PUSH0 PUSH2 0x214B DUP4 DUP6 PUSH2 0x14BE JUMP JUMPDEST SWAP4 POP PUSH2 0x2158 DUP4 DUP6 DUP5 PUSH2 0x2132 JUMP JUMPDEST PUSH2 0x2161 DUP4 PUSH2 0x14F6 JUMP JUMPDEST DUP5 ADD SWAP1 POP SWAP4 SWAP3 POP POP POP JUMP JUMPDEST PUSH0 PUSH1 0x60 DUP3 ADD SWAP1 POP PUSH2 0x217F PUSH0 DUP4 ADD DUP8 PUSH2 0x15E8 JUMP JUMPDEST PUSH2 0x218C PUSH1 0x20 DUP4 ADD DUP7 PUSH2 0x1461 JUMP JUMPDEST DUP2 DUP2 SUB PUSH1 0x40 DUP4 ADD MSTORE PUSH2 0x219F DUP2 DUP5 DUP7 PUSH2 0x2140 JUMP JUMPDEST SWAP1 POP SWAP6 SWAP5 POP POP POP POP POP JUMP JUMPDEST PUSH32 0x446561646C696E65206D75737420626520667574757265000000000000000000 PUSH0 DUP3 ADD MSTORE POP JUMP JUMPDEST PUSH0 PUSH2 0x21DE PUSH1 0x17 DUP4 PUSH2 0x14BE JUMP JUMPDEST SWAP2 POP PUSH2 0x21E9 DUP3 PUSH2 0x21AA JUMP JUMPDEST PUSH1 0x20 DUP3 ADD SWAP1 POP SWAP2 SWAP1 POP JUMP JUMPDEST PUSH0 PUSH1 0x20 DUP3 ADD SWAP1 POP DUP2 DUP2 SUB PUSH0 DUP4 ADD MSTORE PUSH2 0x220B DUP2 PUSH2 0x21D2 JUMP JUMPDEST SWAP1 POP SWAP2 SWAP1 POP JUMP JUMPDEST PUSH0 PUSH2 0x221C DUP3 PUSH2 0x1178 JUMP JUMPDEST SWAP2 POP PUSH32 0xFFFFFFFFFFFFFFFFFFFFFFFFFFFFFFFFFFFFFFFFFFFFFFFFFFFFFFFFFFFFFFFF DUP3 SUB PUSH2 0x224E JUMPI PUSH2 0x224D PUSH2 0x18D5 JUMP JUMPDEST JUMPDEST PUSH1 0x1 DUP3 ADD SWAP1 POP SWAP2 SWAP1 POP JUMP JUMPDEST PUSH2 0x2262 DUP3 PUSH2 0x14B4 JUMP JUMPDEST PUSH8 0xFFFFFFFFFFFFFFFF DUP2 GT ISZERO PUSH2 0x227B JUMPI PUSH2 0x227A PUSH2 0x1E47 JUMP JUMPDEST JUMPDEST PUSH2 0x2285 DUP3 SLOAD PUSH2 0x1EA1 JUMP JUMPDEST PUSH2 0x2290 DUP3 DUP3 DUP6 PUSH2 0x1FDC JUMP JUMPDEST PUSH0 PUSH1 0x20 SWAP1 POP PUSH1 0x1F DUP4 GT PUSH1 0x1 DUP2 EQ PUSH2 0x22C1 JUMPI PUSH0 DUP5 ISZERO PUSH2 0x22AF JUMPI DUP3 DUP8 ADD MLOAD SWAP1 POP JUMPDEST PUSH2 0x22B9 DUP6 DUP3 PUSH2 0x204A JUMP JUMPDEST DUP7 SSTORE POP PUSH2 0x2320 JUMP JUMPDEST PUSH1 0x1F NOT DUP5 AND PUSH2 0x22CF DUP7 PUSH2 0x1ED1 JUMP JUMPDEST PUSH0 JUMPDEST DUP3 DUP2 LT ISZERO PUSH2 0x22F6 JUMPI DUP5 DUP10 ADD MLOAD DUP3 SSTORE PUSH1 0x1 DUP3 ADD SWAP2 POP PUSH1 0x20 DUP6 ADD SWAP5 POP PUSH1 0x20 DUP2 ADD SWAP1 POP PUSH2 0x22D1 JUMP JUMPDEST DUP7 DUP4 LT ISZERO PUSH2 0x2313 JUMPI DUP5 DUP10 ADD MLOAD PUSH2 0x230F PUSH1 0x1F DUP10 AND DUP3 PUSH2 0x202E JUMP JUMPDEST DUP4 SSTORE POP JUMPDEST PUSH1 0x1 PUSH1 0x2 DUP9 MUL ADD DUP9 SSTORE POP POP POP JUMPDEST POP POP POP POP POP POP JUMP JUMPDEST PUSH0 PUSH1 0x60 DUP3 ADD SWAP1 POP DUP2 DUP2 SUB PUSH0 DUP4 ADD MSTORE PUSH2 0x2341 DUP2 DUP7 DUP9 PUSH2 0x2140 JUMP JUMPDEST SWAP1 POP PUSH2 0x2350 PUSH1 0x20 DUP4 ADD DUP6 PUSH2 0x1461 JUMP JUMPDEST PUSH2 0x235D PUSH1 0x40 DUP4 ADD DUP5 PUSH2 0x1461 JUMP JUMPDEST SWAP6 SWAP5 POP POP POP POP POP JUMP INVALID LOG2 PUSH5 0x6970667358 0x22 SLT KECCAK256 SIGNEXTEND XOR 0x1E 0xEA ADDMOD PUSH23 0x1066EF28CCDAFCBA31B436BF1F55F48DA6445F82E206C3 0xD6 0xF8 JUMP PUSH5 0x736F6C6343 STOP ADDMOD OR STOP CALLER "},"methodIdentifiers":{"claim(uint256)":"379607f5","createMarket(string,uint256,uint256)":"cfa51b16","getMarket(uint256)":"eb44fdd3","marketCount()":"ec979082","markets(uint256)":"b1283e77","owner()":"8da5cb5b","resolve(uint256,uint256,string)":"75919f69","stake(uint256,uint256,bool)":"561b2463","stakes(uint256,address)":"a9a3bba4","usdc()":"3e413bee"}}}}}